{
  "_format": "hh-sol-artifact-1",
  "contractName": "MultiSignatureWallet",
  "sourceName": "contracts/shared/MultiSignatureWallet.sol",
  "abi": [
    {
      "inputs": [
        {
          "internalType": "address[]",
          "name": "owners_",
          "type": "address[]"
        },
        {
          "internalType": "uint256",
          "name": "numConfirmationsRequired_",
          "type": "uint256"
        }
      ],
      "stateMutability": "nonpayable",
      "type": "constructor"
    },
    {
      "inputs": [
        {
          "internalType": "address",
          "name": "target",
          "type": "address"
        }
      ],
      "name": "AddressEmptyCode",
      "type": "error"
    },
    {
      "inputs": [
        {
          "internalType": "address",
          "name": "account",
          "type": "address"
        }
      ],
      "name": "AddressInsufficientBalance",
      "type": "error"
    },
    {
      "inputs": [],
      "name": "FailedInnerCall",
      "type": "error"
    },
    {
      "inputs": [
        {
          "internalType": "address",
          "name": "token",
          "type": "address"
        }
      ],
      "name": "SafeERC20FailedOperation",
      "type": "error"
    },
    {
      "anonymous": false,
      "inputs": [
        {
          "indexed": true,
          "internalType": "address",
          "name": "owner",
          "type": "address"
        },
        {
          "indexed": true,
          "internalType": "uint256",
          "name": "txIndex",
          "type": "uint256"
        }
      ],
      "name": "ConfirmTransaction",
      "type": "event"
    },
    {
      "anonymous": false,
      "inputs": [
        {
          "indexed": true,
          "internalType": "address",
          "name": "sender",
          "type": "address"
        },
        {
          "indexed": false,
          "internalType": "uint256",
          "name": "amount",
          "type": "uint256"
        },
        {
          "indexed": false,
          "internalType": "uint256",
          "name": "balance",
          "type": "uint256"
        }
      ],
      "name": "Deposit",
      "type": "event"
    },
    {
      "anonymous": false,
      "inputs": [
        {
          "indexed": true,
          "internalType": "address",
          "name": "owner",
          "type": "address"
        },
        {
          "indexed": true,
          "internalType": "uint256",
          "name": "txIndex",
          "type": "uint256"
        }
      ],
      "name": "ExecuteTransaction",
      "type": "event"
    },
    {
      "anonymous": false,
      "inputs": [
        {
          "indexed": true,
          "internalType": "address",
          "name": "owner",
          "type": "address"
        }
      ],
      "name": "OwnerAddition",
      "type": "event"
    },
    {
      "anonymous": false,
      "inputs": [
        {
          "indexed": true,
          "internalType": "address",
          "name": "owner",
          "type": "address"
        }
      ],
      "name": "OwnerRemoval",
      "type": "event"
    },
    {
      "anonymous": false,
      "inputs": [
        {
          "indexed": false,
          "internalType": "uint256",
          "name": "required",
          "type": "uint256"
        }
      ],
      "name": "RequirementChange",
      "type": "event"
    },
    {
      "anonymous": false,
      "inputs": [
        {
          "indexed": true,
          "internalType": "address",
          "name": "owner",
          "type": "address"
        },
        {
          "indexed": true,
          "internalType": "uint256",
          "name": "txIndex",
          "type": "uint256"
        }
      ],
      "name": "RevokeConfirmation",
      "type": "event"
    },
    {
      "anonymous": false,
      "inputs": [
        {
          "indexed": true,
          "internalType": "address",
          "name": "owner",
          "type": "address"
        },
        {
          "indexed": true,
          "internalType": "uint256",
          "name": "txIndex",
          "type": "uint256"
        },
        {
          "indexed": true,
          "internalType": "address",
          "name": "to",
          "type": "address"
        },
        {
          "indexed": false,
          "internalType": "uint256",
          "name": "value",
          "type": "uint256"
        },
        {
          "indexed": false,
          "internalType": "bytes",
          "name": "data",
          "type": "bytes"
        }
      ],
      "name": "SubmitTransaction",
      "type": "event"
    },
    {
      "inputs": [
        {
          "internalType": "address",
          "name": "owner_",
          "type": "address"
        }
      ],
      "name": "addOwner",
      "outputs": [],
      "stateMutability": "nonpayable",
      "type": "function"
    },
    {
      "inputs": [
        {
          "internalType": "uint256",
          "name": "required_",
          "type": "uint256"
        }
      ],
      "name": "changeRequirement",
      "outputs": [],
      "stateMutability": "nonpayable",
      "type": "function"
    },
    {
      "inputs": [
        {
          "internalType": "uint256",
          "name": "txIndex_",
          "type": "uint256"
        }
      ],
      "name": "confirmTransaction",
      "outputs": [],
      "stateMutability": "nonpayable",
      "type": "function"
    },
    {
      "inputs": [
        {
          "internalType": "address",
          "name": "token",
          "type": "address"
        },
        {
          "internalType": "address[]",
          "name": "owners_",
          "type": "address[]"
        }
      ],
      "name": "distribute",
      "outputs": [],
      "stateMutability": "nonpayable",
      "type": "function"
    },
    {
      "inputs": [
        {
          "internalType": "uint256",
          "name": "txIndex_",
          "type": "uint256"
        }
      ],
      "name": "executeTransaction",
      "outputs": [],
      "stateMutability": "nonpayable",
      "type": "function"
    },
    {
      "inputs": [],
      "name": "getOwners",
      "outputs": [
        {
          "internalType": "address[]",
          "name": "",
          "type": "address[]"
        }
      ],
      "stateMutability": "view",
      "type": "function"
    },
    {
      "inputs": [],
      "name": "getTransactionCount",
      "outputs": [
        {
          "internalType": "uint256",
          "name": "",
          "type": "uint256"
        }
      ],
      "stateMutability": "view",
      "type": "function"
    },
    {
      "inputs": [
        {
          "internalType": "uint256",
          "name": "txIndex_",
          "type": "uint256"
        }
      ],
      "name": "getTransactionData",
      "outputs": [
        {
          "internalType": "address",
          "name": "to",
          "type": "address"
        },
        {
          "internalType": "uint256",
          "name": "value",
          "type": "uint256"
        },
        {
          "internalType": "bytes",
          "name": "data",
          "type": "bytes"
        },
        {
          "internalType": "bool",
          "name": "executed",
          "type": "bool"
        },
        {
          "internalType": "uint256",
          "name": "numConfirmations",
          "type": "uint256"
        }
      ],
      "stateMutability": "view",
      "type": "function"
    },
    {
      "inputs": [
        {
          "internalType": "uint256",
          "name": "",
          "type": "uint256"
        },
        {
          "internalType": "address",
          "name": "",
          "type": "address"
        }
      ],
      "name": "isConfirmed",
      "outputs": [
        {
          "internalType": "bool",
          "name": "",
          "type": "bool"
        }
      ],
      "stateMutability": "view",
      "type": "function"
    },
    {
      "inputs": [
        {
          "internalType": "address",
          "name": "",
          "type": "address"
        }
      ],
      "name": "isOwner",
      "outputs": [
        {
          "internalType": "bool",
          "name": "",
          "type": "bool"
        }
      ],
      "stateMutability": "view",
      "type": "function"
    },
    {
      "inputs": [],
      "name": "numConfirmationsRequired",
      "outputs": [
        {
          "internalType": "uint256",
          "name": "",
          "type": "uint256"
        }
      ],
      "stateMutability": "view",
      "type": "function"
    },
    {
      "inputs": [
        {
          "internalType": "address[]",
          "name": "owners_",
          "type": "address[]"
        }
      ],
      "name": "recoverETH",
      "outputs": [],
      "stateMutability": "nonpayable",
      "type": "function"
    },
    {
      "inputs": [
        {
          "internalType": "address",
          "name": "owner_",
          "type": "address"
        }
      ],
      "name": "removeOwner",
      "outputs": [],
      "stateMutability": "nonpayable",
      "type": "function"
    },
    {
      "inputs": [
        {
          "internalType": "address",
          "name": "owner_",
          "type": "address"
        },
        {
          "internalType": "address",
          "name": "newOwner_",
          "type": "address"
        }
      ],
      "name": "replaceOwner",
      "outputs": [],
      "stateMutability": "nonpayable",
      "type": "function"
    },
    {
      "inputs": [
        {
          "internalType": "uint256",
          "name": "txIndex_",
          "type": "uint256"
        }
      ],
      "name": "revokeConfirmation",
      "outputs": [],
      "stateMutability": "nonpayable",
      "type": "function"
    },
    {
      "inputs": [
        {
          "internalType": "address",
          "name": "to_",
          "type": "address"
        },
        {
          "internalType": "uint256",
          "name": "value_",
          "type": "uint256"
        },
        {
          "internalType": "bytes",
          "name": "data_",
          "type": "bytes"
        }
      ],
      "name": "submitTransaction",
      "outputs": [],
      "stateMutability": "nonpayable",
      "type": "function"
    },
    {
      "inputs": [
        {
          "internalType": "uint256",
          "name": "",
          "type": "uint256"
        }
      ],
      "name": "transactions",
      "outputs": [
        {
          "internalType": "address",
          "name": "to",
          "type": "address"
        },
        {
          "internalType": "uint256",
          "name": "value",
          "type": "uint256"
        },
        {
          "internalType": "bytes",
          "name": "data",
          "type": "bytes"
        },
        {
          "internalType": "bool",
          "name": "executed",
          "type": "bool"
        },
        {
          "internalType": "uint256",
          "name": "numConfirmations",
          "type": "uint256"
        }
      ],
      "stateMutability": "view",
      "type": "function"
    },
    {
      "stateMutability": "payable",
      "type": "receive"
    }
  ],
  "bytecode": "0x60806040523480156200001157600080fd5b5060405162003eba38038062003eba83398181016040528101906200003791906200050d565b60008251116200007e576040517f08c379a00000000000000000000000000000000000000000000000000000000081526004016200007590620005d4565b60405180910390fd5b60008111801562000090575081518111155b620000d2576040517f08c379a0000000000000000000000000000000000000000000000000000000008152600401620000c9906200066c565b60405180910390fd5b60005b8251811015620002d4576000838281518110620000f757620000f66200068e565b5b60200260200101519050600073ffffffffffffffffffffffffffffffffffffffff168173ffffffffffffffffffffffffffffffffffffffff160362000173576040517f08c379a00000000000000000000000000000000000000000000000000000000081526004016200016a906200070d565b60405180910390fd5b600160008273ffffffffffffffffffffffffffffffffffffffff1673ffffffffffffffffffffffffffffffffffffffff16815260200190815260200160002060009054906101000a900460ff161562000203576040517f08c379a0000000000000000000000000000000000000000000000000000000008152600401620001fa906200077f565b60405180910390fd5b60018060008373ffffffffffffffffffffffffffffffffffffffff1673ffffffffffffffffffffffffffffffffffffffff16815260200190815260200160002060006101000a81548160ff0219169083151502179055506003819080600181540180825580915050600190039060005260206000200160009091909190916101000a81548173ffffffffffffffffffffffffffffffffffffffff021916908373ffffffffffffffffffffffffffffffffffffffff160217905550508080620002cb90620007d0565b915050620000d5565b508060008190555050506200081d565b6000604051905090565b600080fd5b600080fd5b600080fd5b6000601f19601f8301169050919050565b7f4e487b7100000000000000000000000000000000000000000000000000000000600052604160045260246000fd5b6200034882620002fd565b810181811067ffffffffffffffff821117156200036a57620003696200030e565b5b80604052505050565b60006200037f620002e4565b90506200038d82826200033d565b919050565b600067ffffffffffffffff821115620003b057620003af6200030e565b5b602082029050602081019050919050565b600080fd5b600073ffffffffffffffffffffffffffffffffffffffff82169050919050565b6000620003f382620003c6565b9050919050565b6200040581620003e6565b81146200041157600080fd5b50565b6000815190506200042581620003fa565b92915050565b6000620004426200043c8462000392565b62000373565b90508083825260208201905060208402830185811115620004685762000467620003c1565b5b835b8181101562000495578062000480888262000414565b8452602084019350506020810190506200046a565b5050509392505050565b600082601f830112620004b757620004b6620002f8565b5b8151620004c98482602086016200042b565b91505092915050565b6000819050919050565b620004e781620004d2565b8114620004f357600080fd5b50565b6000815190506200050781620004dc565b92915050565b60008060408385031215620005275762000526620002ee565b5b600083015167ffffffffffffffff811115620005485762000547620002f3565b5b62000556858286016200049f565b92505060206200056985828601620004f6565b9150509250929050565b600082825260208201905092915050565b7f6f776e6572732072657175697265640000000000000000000000000000000000600082015250565b6000620005bc600f8362000573565b9150620005c98262000584565b602082019050919050565b60006020820190508181036000830152620005ef81620005ad565b9050919050565b7f696e76616c6964206e756d626572206f6620726571756972656420636f6e666960008201527f726d6174696f6e73000000000000000000000000000000000000000000000000602082015250565b60006200065460288362000573565b91506200066182620005f6565b604082019050919050565b60006020820190508181036000830152620006878162000645565b9050919050565b7f4e487b7100000000000000000000000000000000000000000000000000000000600052603260045260246000fd5b7f696e76616c6964206f776e657200000000000000000000000000000000000000600082015250565b6000620006f5600d8362000573565b91506200070282620006bd565b602082019050919050565b600060208201905081810360008301526200072881620006e6565b9050919050565b7f6f776e6572206e6f7420756e6971756500000000000000000000000000000000600082015250565b60006200076760108362000573565b915062000774826200072f565b602082019050919050565b600060208201905081810360008301526200079a8162000758565b9050919050565b7f4e487b7100000000000000000000000000000000000000000000000000000000600052601160045260246000fd5b6000620007dd82620004d2565b91507fffffffffffffffffffffffffffffffffffffffffffffffffffffffffffffffff8203620008125762000811620007a1565b5b600182019050919050565b61368d806200082d6000396000f3fe6080604052600436106101025760003560e01c80638fef9f5811610095578063c01a8c8411610064578063c01a8c84146103a6578063c6427474146103cf578063d0549b85146103f8578063e20056e614610423578063ee22610b1461044c57610159565b80638fef9f58146102e85780639ace38c214610311578063a0e67e2b14610352578063ba51a6df1461037d57610159565b80633b24b547116100d15780633b24b547146102185780635a703292146102595780637065cb481461028257806380f59a65146102ab57610159565b8063173825d91461015e57806320ea8d86146101875780632e7700f0146101b05780632f54bf6e146101db57610159565b36610159573373ffffffffffffffffffffffffffffffffffffffff167f90890809c654f11d6e72a28fa60149770a0d11ec6c92319d6ceb2bb0a4ea1a15344760405161014f92919061239c565b60405180910390a2005b600080fd5b34801561016a57600080fd5b5061018560048036038101906101809190612437565b610475565b005b34801561019357600080fd5b506101ae60048036038101906101a99190612490565b6107a2565b005b3480156101bc57600080fd5b506101c5610a7c565b6040516101d291906124bd565b60405180910390f35b3480156101e757600080fd5b5061020260048036038101906101fd9190612437565b610a89565b60405161020f91906124f3565b60405180910390f35b34801561022457600080fd5b5061023f600480360381019061023a9190612490565b610aa9565b6040516102509594939291906125ad565b60405180910390f35b34801561026557600080fd5b50610280600480360381019061027b919061266c565b610bbc565b005b34801561028e57600080fd5b506102a960048036038101906102a49190612437565b610eaa565b005b3480156102b757600080fd5b506102d260048036038101906102cd91906126cc565b611130565b6040516102df91906124f3565b60405180910390f35b3480156102f457600080fd5b5061030f600480360381019061030a919061270c565b61115f565b005b34801561031d57600080fd5b5061033860048036038101906103339190612490565b611380565b6040516103499594939291906125ad565b60405180910390f35b34801561035e57600080fd5b5061036761147b565b6040516103749190612817565b60405180910390f35b34801561038957600080fd5b506103a4600480360381019061039f9190612490565b611509565b005b3480156103b257600080fd5b506103cd60048036038101906103c89190612490565b6115bf565b005b3480156103db57600080fd5b506103f660048036038101906103f19190612969565b61189c565b005b34801561040457600080fd5b5061040d611a9f565b60405161041a91906124bd565b60405180910390f35b34801561042f57600080fd5b5061044a600480360381019061044591906129d8565b611aa5565b005b34801561045857600080fd5b50610473600480360381019061046e9190612490565b611dbe565b005b3073ffffffffffffffffffffffffffffffffffffffff163373ffffffffffffffffffffffffffffffffffffffff16146104ad57600080fd5b80600160008273ffffffffffffffffffffffffffffffffffffffff1673ffffffffffffffffffffffffffffffffffffffff16815260200190815260200160002060009054906101000a900460ff1661050457600080fd5b60016003805490501161054c576040517f08c379a000000000000000000000000000000000000000000000000000000000815260040161054390612a75565b60405180910390fd5b6000600160008473ffffffffffffffffffffffffffffffffffffffff1673ffffffffffffffffffffffffffffffffffffffff16815260200190815260200160002060006101000a81548160ff02191690831515021790555060005b60016003805490506105b99190612ac4565b8110156106f5578273ffffffffffffffffffffffffffffffffffffffff16600382815481106105eb576105ea612af8565b5b9060005260206000200160009054906101000a900473ffffffffffffffffffffffffffffffffffffffff1673ffffffffffffffffffffffffffffffffffffffff16036106e257600360016003805490506106459190612ac4565b8154811061065657610655612af8565b5b9060005260206000200160009054906101000a900473ffffffffffffffffffffffffffffffffffffffff166003828154811061069557610694612af8565b5b9060005260206000200160006101000a81548173ffffffffffffffffffffffffffffffffffffffff021916908373ffffffffffffffffffffffffffffffffffffffff1602179055506106f5565b80806106ed90612b27565b9150506105a7565b50600380548061070857610707612b6f565b5b6001900381819060005260206000200160006101000a81549073ffffffffffffffffffffffffffffffffffffffff02191690559055600380549050600054111561075b5761075a600380549050611509565b5b8173ffffffffffffffffffffffffffffffffffffffff167f8001553a916ef2f495d26a907cc54d96ed840d7bda71e73194bf5a9df7a76b9060405160405180910390a25050565b600160003373ffffffffffffffffffffffffffffffffffffffff1673ffffffffffffffffffffffffffffffffffffffff16815260200190815260200160002060009054906101000a900460ff1661082e576040517f08c379a000000000000000000000000000000000000000000000000000000000815260040161082590612bea565b60405180910390fd5b806004805490508110610876576040517f08c379a000000000000000000000000000000000000000000000000000000000815260040161086d90612c56565b60405180910390fd5b816004818154811061088b5761088a612af8565b5b906000526020600020906005020160030160009054906101000a900460ff16156108ea576040517f08c379a00000000000000000000000000000000000000000000000000000000081526004016108e190612cc2565b60405180910390fd5b600060048481548110610900576108ff612af8565b5b906000526020600020906005020190506002600085815260200190815260200160002060003373ffffffffffffffffffffffffffffffffffffffff1673ffffffffffffffffffffffffffffffffffffffff16815260200190815260200160002060009054906101000a900460ff166109ad576040517f08c379a00000000000000000000000000000000000000000000000000000000081526004016109a490612d2e565b60405180910390fd5b60018160040160008282546109c29190612ac4565b9250508190555060006002600086815260200190815260200160002060003373ffffffffffffffffffffffffffffffffffffffff1673ffffffffffffffffffffffffffffffffffffffff16815260200190815260200160002060006101000a81548160ff021916908315150217905550833373ffffffffffffffffffffffffffffffffffffffff167ff0dca620e2e81f7841d07bcc105e1704fb01475b278a9d4c236e1c62945edd5560405160405180910390a350505050565b6000600480549050905090565b60016020528060005260406000206000915054906101000a900460ff1681565b6000806060600080600060048781548110610ac757610ac6612af8565b5b906000526020600020906005020190508060000160009054906101000a900473ffffffffffffffffffffffffffffffffffffffff168160010154826002018360030160009054906101000a900460ff168460040154828054610b2890612d7d565b80601f0160208091040260200160405190810160405280929190818152602001828054610b5490612d7d565b8015610ba15780601f10610b7657610100808354040283529160200191610ba1565b820191906000526020600020905b815481529060010190602001808311610b8457829003601f168201915b50505050509250955095509550955095505091939590929450565b3073ffffffffffffffffffffffffffffffffffffffff163373ffffffffffffffffffffffffffffffffffffffff1614610bf457600080fd5b600073ffffffffffffffffffffffffffffffffffffffff168373ffffffffffffffffffffffffffffffffffffffff1603610c63576040517f08c379a0000000000000000000000000000000000000000000000000000000008152600401610c5a90612dfa565b60405180910390fd5b60008282905011610ca9576040517f08c379a0000000000000000000000000000000000000000000000000000000008152600401610ca090612e66565b60405180910390fd5b60008373ffffffffffffffffffffffffffffffffffffffff166370a08231306040518263ffffffff1660e01b8152600401610ce49190612e86565b602060405180830381865afa158015610d01573d6000803e3d6000fd5b505050506040513d601f19601f82011682018060405250810190610d259190612eb6565b905060008111610d6a576040517f08c379a0000000000000000000000000000000000000000000000000000000008152600401610d6190612f2f565b60405180910390fd5b6000838390508281610d7f57610d7e612f4f565b5b04905060005b84849050811015610ea25760016000868684818110610da757610da6612af8565b5b9050602002016020810190610dbc9190612437565b73ffffffffffffffffffffffffffffffffffffffff1673ffffffffffffffffffffffffffffffffffffffff16815260200190815260200160002060009054906101000a900460ff16610e43576040517f08c379a0000000000000000000000000000000000000000000000000000000008152600401610e3a90612fca565b60405180910390fd5b610e95858583818110610e5957610e58612af8565b5b9050602002016020810190610e6e9190612437565b838873ffffffffffffffffffffffffffffffffffffffff166120b69092919063ffffffff16565b8080600101915050610d85565b505050505050565b3073ffffffffffffffffffffffffffffffffffffffff163373ffffffffffffffffffffffffffffffffffffffff1614610ee257600080fd5b80600160008273ffffffffffffffffffffffffffffffffffffffff1673ffffffffffffffffffffffffffffffffffffffff16815260200190815260200160002060009054906101000a900460ff1615610f3a57600080fd5b81600073ffffffffffffffffffffffffffffffffffffffff168173ffffffffffffffffffffffffffffffffffffffff1603610f7457600080fd5b6001600380549050610f869190612fea565b600054601e8211158015610f9a5750818111155b8015610fa7575060008114155b8015610fb4575060008214155b610fbd57600080fd5b600073ffffffffffffffffffffffffffffffffffffffff168573ffffffffffffffffffffffffffffffffffffffff160361102c576040517f08c379a00000000000000000000000000000000000000000000000000000000081526004016110239061306a565b60405180910390fd5b60018060008773ffffffffffffffffffffffffffffffffffffffff1673ffffffffffffffffffffffffffffffffffffffff16815260200190815260200160002060006101000a81548160ff0219169083151502179055506003859080600181540180825580915050600190039060005260206000200160009091909190916101000a81548173ffffffffffffffffffffffffffffffffffffffff021916908373ffffffffffffffffffffffffffffffffffffffff1602179055508473ffffffffffffffffffffffffffffffffffffffff167ff39e6e1eb0edcf53c221607b54b00cd28f3196fed0a24994dc308b8f611b682d60405160405180910390a25050505050565b60026020528160005260406000206020528060005260406000206000915091509054906101000a900460ff1681565b3073ffffffffffffffffffffffffffffffffffffffff163373ffffffffffffffffffffffffffffffffffffffff161461119757600080fd5b600082829050116111dd576040517f08c379a00000000000000000000000000000000000000000000000000000000081526004016111d490612e66565b60405180910390fd5b600047905060008111611225576040517f08c379a000000000000000000000000000000000000000000000000000000000815260040161121c906130d6565b60405180910390fd5b600083839050828161123a57611239612f4f565b5b04905060005b84849050811015611379576001600086868481811061126257611261612af8565b5b90506020020160208101906112779190612437565b73ffffffffffffffffffffffffffffffffffffffff1673ffffffffffffffffffffffffffffffffffffffff16815260200190815260200160002060009054906101000a900460ff166112fe576040517f08c379a00000000000000000000000000000000000000000000000000000000081526004016112f590612fca565b60405180910390fd5b84848281811061131157611310612af8565b5b90506020020160208101906113269190612437565b73ffffffffffffffffffffffffffffffffffffffff166108fc839081150290604051600060405180830381858888f1935050505015801561136b573d6000803e3d6000fd5b508080600101915050611240565b5050505050565b6004818154811061139057600080fd5b90600052602060002090600502016000915090508060000160009054906101000a900473ffffffffffffffffffffffffffffffffffffffff16908060010154908060020180546113df90612d7d565b80601f016020809104026020016040519081016040528092919081815260200182805461140b90612d7d565b80156114585780601f1061142d57610100808354040283529160200191611458565b820191906000526020600020905b81548152906001019060200180831161143b57829003601f168201915b5050505050908060030160009054906101000a900460ff16908060040154905085565b606060038054806020026020016040519081016040528092919081815260200182805480156114ff57602002820191906000526020600020905b8160009054906101000a900473ffffffffffffffffffffffffffffffffffffffff1673ffffffffffffffffffffffffffffffffffffffff16815260200190600101908083116114b5575b5050505050905090565b3073ffffffffffffffffffffffffffffffffffffffff163373ffffffffffffffffffffffffffffffffffffffff161461154157600080fd5b60038054905081601e82111580156115595750818111155b8015611566575060008114155b8015611573575060008214155b61157c57600080fd5b826000819055507fa3f1ee9126a074d9326c682f561767f710e927faa811f7a99829d49dc421797a836040516115b291906124bd565b60405180910390a1505050565b600160003373ffffffffffffffffffffffffffffffffffffffff1673ffffffffffffffffffffffffffffffffffffffff16815260200190815260200160002060009054906101000a900460ff1661164b576040517f08c379a000000000000000000000000000000000000000000000000000000000815260040161164290612bea565b60405180910390fd5b806004805490508110611693576040517f08c379a000000000000000000000000000000000000000000000000000000000815260040161168a90612c56565b60405180910390fd5b81600481815481106116a8576116a7612af8565b5b906000526020600020906005020160030160009054906101000a900460ff1615611707576040517f08c379a00000000000000000000000000000000000000000000000000000000081526004016116fe90612cc2565b60405180910390fd5b826002600082815260200190815260200160002060003373ffffffffffffffffffffffffffffffffffffffff1673ffffffffffffffffffffffffffffffffffffffff16815260200190815260200160002060009054906101000a900460ff16156117a6576040517f08c379a000000000000000000000000000000000000000000000000000000000815260040161179d90613142565b60405180910390fd5b6000600485815481106117bc576117bb612af8565b5b9060005260206000209060050201905060018160040160008282546117e19190612fea565b9250508190555060016002600087815260200190815260200160002060003373ffffffffffffffffffffffffffffffffffffffff1673ffffffffffffffffffffffffffffffffffffffff16815260200190815260200160002060006101000a81548160ff021916908315150217905550843373ffffffffffffffffffffffffffffffffffffffff167f5cbe105e36805f7820e291f799d5794ff948af2a5f664e580382defb6339004160405160405180910390a35050505050565b600160003373ffffffffffffffffffffffffffffffffffffffff1673ffffffffffffffffffffffffffffffffffffffff16815260200190815260200160002060009054906101000a900460ff16611928576040517f08c379a000000000000000000000000000000000000000000000000000000000815260040161191f90612bea565b60405180910390fd5b6000600480549050905060046040518060a001604052808673ffffffffffffffffffffffffffffffffffffffff1681526020018581526020018481526020016000151581526020016000815250908060018154018082558091505060019003906000526020600020906005020160009091909190915060008201518160000160006101000a81548173ffffffffffffffffffffffffffffffffffffffff021916908373ffffffffffffffffffffffffffffffffffffffff160217905550602082015181600101556040820151816002019081611a04919061330e565b5060608201518160030160006101000a81548160ff0219169083151502179055506080820151816004015550508373ffffffffffffffffffffffffffffffffffffffff16813373ffffffffffffffffffffffffffffffffffffffff167fd5a05bf70715ad82a09a756320284a1b54c9ff74cd0f8cce6219e79b563fe59d8686604051611a919291906133e0565b60405180910390a450505050565b60005481565b3073ffffffffffffffffffffffffffffffffffffffff163373ffffffffffffffffffffffffffffffffffffffff1614611add57600080fd5b81600160008273ffffffffffffffffffffffffffffffffffffffff1673ffffffffffffffffffffffffffffffffffffffff16815260200190815260200160002060009054906101000a900460ff16611b3457600080fd5b81600160008273ffffffffffffffffffffffffffffffffffffffff1673ffffffffffffffffffffffffffffffffffffffff16815260200190815260200160002060009054906101000a900460ff1615611b8c57600080fd5b60005b600380549050811015611c82578473ffffffffffffffffffffffffffffffffffffffff1660038281548110611bc757611bc6612af8565b5b9060005260206000200160009054906101000a900473ffffffffffffffffffffffffffffffffffffffff1673ffffffffffffffffffffffffffffffffffffffff1603611c6f578360038281548110611c2257611c21612af8565b5b9060005260206000200160006101000a81548173ffffffffffffffffffffffffffffffffffffffff021916908373ffffffffffffffffffffffffffffffffffffffff160217905550611c82565b8080611c7a90612b27565b915050611b8f565b506000600160008673ffffffffffffffffffffffffffffffffffffffff1673ffffffffffffffffffffffffffffffffffffffff16815260200190815260200160002060006101000a81548160ff02191690831515021790555060018060008573ffffffffffffffffffffffffffffffffffffffff1673ffffffffffffffffffffffffffffffffffffffff16815260200190815260200160002060006101000a81548160ff0219169083151502179055508373ffffffffffffffffffffffffffffffffffffffff167f8001553a916ef2f495d26a907cc54d96ed840d7bda71e73194bf5a9df7a76b9060405160405180910390a28273ffffffffffffffffffffffffffffffffffffffff167ff39e6e1eb0edcf53c221607b54b00cd28f3196fed0a24994dc308b8f611b682d60405160405180910390a250505050565b600160003373ffffffffffffffffffffffffffffffffffffffff1673ffffffffffffffffffffffffffffffffffffffff16815260200190815260200160002060009054906101000a900460ff16611e4a576040517f08c379a0000000000000000000000000000000000000000000000000000000008152600401611e4190612bea565b60405180910390fd5b806004805490508110611e92576040517f08c379a0000000000000000000000000000000000000000000000000000000008152600401611e8990612c56565b60405180910390fd5b8160048181548110611ea757611ea6612af8565b5b906000526020600020906005020160030160009054906101000a900460ff1615611f06576040517f08c379a0000000000000000000000000000000000000000000000000000000008152600401611efd90612cc2565b60405180910390fd5b600060048481548110611f1c57611f1b612af8565b5b9060005260206000209060050201905060005481600401541015611f75576040517f08c379a0000000000000000000000000000000000000000000000000000000008152600401611f6c9061345c565b60405180910390fd5b60018160030160006101000a81548160ff02191690831515021790555060008160000160009054906101000a900473ffffffffffffffffffffffffffffffffffffffff1673ffffffffffffffffffffffffffffffffffffffff16826001015483600201604051611fe5919061350a565b60006040518083038185875af1925050503d8060008114612022576040519150601f19603f3d011682016040523d82523d6000602084013e612027565b606091505b505090508061206b576040517f08c379a00000000000000000000000000000000000000000000000000000000081526004016120629061356d565b60405180910390fd5b843373ffffffffffffffffffffffffffffffffffffffff167f5445f318f4f5fcfb66592e68e0cc5822aa15664039bd5f0ffde24c5a8142b1ac60405160405180910390a35050505050565b612130838473ffffffffffffffffffffffffffffffffffffffff1663a9059cbb85856040516024016120e992919061358d565b604051602081830303815290604052915060e01b6020820180517bffffffffffffffffffffffffffffffffffffffffffffffffffffffff8381831617835250505050612135565b505050565b6000612160828473ffffffffffffffffffffffffffffffffffffffff166121cc90919063ffffffff16565b9050600081511415801561218557508080602001905181019061218391906135e2565b155b156121c757826040517f5274afe70000000000000000000000000000000000000000000000000000000081526004016121be9190612e86565b60405180910390fd5b505050565b60606121da838360006121e2565b905092915050565b60608147101561222957306040517fcd7860590000000000000000000000000000000000000000000000000000000081526004016122209190612e86565b60405180910390fd5b6000808573ffffffffffffffffffffffffffffffffffffffff1684866040516122529190613640565b60006040518083038185875af1925050503d806000811461228f576040519150601f19603f3d011682016040523d82523d6000602084013e612294565b606091505b50915091506122a48683836122af565b925050509392505050565b6060826122c4576122bf8261233e565b612336565b600082511480156122ec575060008473ffffffffffffffffffffffffffffffffffffffff163b145b1561232e57836040517f9996b3150000000000000000000000000000000000000000000000000000000081526004016123259190612e86565b60405180910390fd5b819050612337565b5b9392505050565b6000815111156123515780518082602001fd5b6040517f1425ea4200000000000000000000000000000000000000000000000000000000815260040160405180910390fd5b6000819050919050565b61239681612383565b82525050565b60006040820190506123b1600083018561238d565b6123be602083018461238d565b9392505050565b6000604051905090565b600080fd5b600080fd5b600073ffffffffffffffffffffffffffffffffffffffff82169050919050565b6000612404826123d9565b9050919050565b612414816123f9565b811461241f57600080fd5b50565b6000813590506124318161240b565b92915050565b60006020828403121561244d5761244c6123cf565b5b600061245b84828501612422565b91505092915050565b61246d81612383565b811461247857600080fd5b50565b60008135905061248a81612464565b92915050565b6000602082840312156124a6576124a56123cf565b5b60006124b48482850161247b565b91505092915050565b60006020820190506124d2600083018461238d565b92915050565b60008115159050919050565b6124ed816124d8565b82525050565b600060208201905061250860008301846124e4565b92915050565b612517816123f9565b82525050565b600081519050919050565b600082825260208201905092915050565b60005b8381101561255757808201518184015260208101905061253c565b60008484015250505050565b6000601f19601f8301169050919050565b600061257f8261251d565b6125898185612528565b9350612599818560208601612539565b6125a281612563565b840191505092915050565b600060a0820190506125c2600083018861250e565b6125cf602083018761238d565b81810360408301526125e18186612574565b90506125f060608301856124e4565b6125fd608083018461238d565b9695505050505050565b600080fd5b600080fd5b600080fd5b60008083601f84011261262c5761262b612607565b5b8235905067ffffffffffffffff8111156126495761264861260c565b5b60208301915083602082028301111561266557612664612611565b5b9250929050565b600080600060408486031215612685576126846123cf565b5b600061269386828701612422565b935050602084013567ffffffffffffffff8111156126b4576126b36123d4565b5b6126c086828701612616565b92509250509250925092565b600080604083850312156126e3576126e26123cf565b5b60006126f18582860161247b565b925050602061270285828601612422565b9150509250929050565b60008060208385031215612723576127226123cf565b5b600083013567ffffffffffffffff811115612741576127406123d4565b5b61274d85828601612616565b92509250509250929050565b600081519050919050565b600082825260208201905092915050565b6000819050602082019050919050565b61278e816123f9565b82525050565b60006127a08383612785565b60208301905092915050565b6000602082019050919050565b60006127c482612759565b6127ce8185612764565b93506127d983612775565b8060005b8381101561280a5781516127f18882612794565b97506127fc836127ac565b9250506001810190506127dd565b5085935050505092915050565b6000602082019050818103600083015261283181846127b9565b905092915050565b600080fd5b7f4e487b7100000000000000000000000000000000000000000000000000000000600052604160045260246000fd5b61287682612563565b810181811067ffffffffffffffff821117156128955761289461283e565b5b80604052505050565b60006128a86123c5565b90506128b4828261286d565b919050565b600067ffffffffffffffff8211156128d4576128d361283e565b5b6128dd82612563565b9050602081019050919050565b82818337600083830152505050565b600061290c612907846128b9565b61289e565b90508281526020810184848401111561292857612927612839565b5b6129338482856128ea565b509392505050565b600082601f8301126129505761294f612607565b5b81356129608482602086016128f9565b91505092915050565b600080600060608486031215612982576129816123cf565b5b600061299086828701612422565b93505060206129a18682870161247b565b925050604084013567ffffffffffffffff8111156129c2576129c16123d4565b5b6129ce8682870161293b565b9150509250925092565b600080604083850312156129ef576129ee6123cf565b5b60006129fd85828601612422565b9250506020612a0e85828601612422565b9150509250929050565b600082825260208201905092915050565b7f43616e6e6f742072656d6f7665206c617374206f776e65720000000000000000600082015250565b6000612a5f601883612a18565b9150612a6a82612a29565b602082019050919050565b60006020820190508181036000830152612a8e81612a52565b9050919050565b7f4e487b7100000000000000000000000000000000000000000000000000000000600052601160045260246000fd5b6000612acf82612383565b9150612ada83612383565b9250828203905081811115612af257612af1612a95565b5b92915050565b7f4e487b7100000000000000000000000000000000000000000000000000000000600052603260045260246000fd5b6000612b3282612383565b91507fffffffffffffffffffffffffffffffffffffffffffffffffffffffffffffffff8203612b6457612b63612a95565b5b600182019050919050565b7f4e487b7100000000000000000000000000000000000000000000000000000000600052603160045260246000fd5b7f4e6f74206f776e65720000000000000000000000000000000000000000000000600082015250565b6000612bd4600983612a18565b9150612bdf82612b9e565b602082019050919050565b60006020820190508181036000830152612c0381612bc7565b9050919050565b7f747820646f6573206e6f74206578697374000000000000000000000000000000600082015250565b6000612c40601183612a18565b9150612c4b82612c0a565b602082019050919050565b60006020820190508181036000830152612c6f81612c33565b9050919050565b7f747820616c726561647920657865637574656400000000000000000000000000600082015250565b6000612cac601383612a18565b9150612cb782612c76565b602082019050919050565b60006020820190508181036000830152612cdb81612c9f565b9050919050565b7f5478206973206e6f7420636f6e6669726d656400000000000000000000000000600082015250565b6000612d18601383612a18565b9150612d2382612ce2565b602082019050919050565b60006020820190508181036000830152612d4781612d0b565b9050919050565b7f4e487b7100000000000000000000000000000000000000000000000000000000600052602260045260246000fd5b60006002820490506001821680612d9557607f821691505b602082108103612da857612da7612d4e565b5b50919050565b7f546f6b656e2063616e6e6f74206265207a65726f000000000000000000000000600082015250565b6000612de4601483612a18565b9150612def82612dae565b602082019050919050565b60006020820190508181036000830152612e1381612dd7565b9050919050565b7f456d707479206f776e6572732061727261792070726f76696465640000000000600082015250565b6000612e50601b83612a18565b9150612e5b82612e1a565b602082019050919050565b60006020820190508181036000830152612e7f81612e43565b9050919050565b6000602082019050612e9b600083018461250e565b92915050565b600081519050612eb081612464565b92915050565b600060208284031215612ecc57612ecb6123cf565b5b6000612eda84828501612ea1565b91505092915050565b7f496e73756666696369656e7420746f6b656e2062616c616e6365000000000000600082015250565b6000612f19601a83612a18565b9150612f2482612ee3565b602082019050919050565b60006020820190508181036000830152612f4881612f0c565b9050919050565b7f4e487b7100000000000000000000000000000000000000000000000000000000600052601260045260246000fd5b7f416472657373206973206e6f74206f776e657200000000000000000000000000600082015250565b6000612fb4601383612a18565b9150612fbf82612f7e565b602082019050919050565b60006020820190508181036000830152612fe381612fa7565b9050919050565b6000612ff582612383565b915061300083612383565b925082820190508082111561301857613017612a95565b5b92915050565b7f4f776e65722063616e6e6f742062652030783000000000000000000000000000600082015250565b6000613054601383612a18565b915061305f8261301e565b602082019050919050565b6000602082019050818103600083015261308381613047565b9050919050565b7f496e73756666696369656e742065746865722062616c616e6365000000000000600082015250565b60006130c0601a83612a18565b91506130cb8261308a565b602082019050919050565b600060208201905081810360008301526130ef816130b3565b9050919050565b7f747820616c726561647920636f6e6669726d6564000000000000000000000000600082015250565b600061312c601483612a18565b9150613137826130f6565b602082019050919050565b6000602082019050818103600083015261315b8161311f565b9050919050565b60008190508160005260206000209050919050565b60006020601f8301049050919050565b600082821b905092915050565b6000600883026131c47fffffffffffffffffffffffffffffffffffffffffffffffffffffffffffffffff82613187565b6131ce8683613187565b95508019841693508086168417925050509392505050565b6000819050919050565b600061320b61320661320184612383565b6131e6565b612383565b9050919050565b6000819050919050565b613225836131f0565b61323961323182613212565b848454613194565b825550505050565b600090565b61324e613241565b61325981848461321c565b505050565b5b8181101561327d57613272600082613246565b60018101905061325f565b5050565b601f8211156132c25761329381613162565b61329c84613177565b810160208510156132ab578190505b6132bf6132b785613177565b83018261325e565b50505b505050565b600082821c905092915050565b60006132e5600019846008026132c7565b1980831691505092915050565b60006132fe83836132d4565b9150826002028217905092915050565b6133178261251d565b67ffffffffffffffff8111156133305761332f61283e565b5b61333a8254612d7d565b613345828285613281565b600060209050601f8311600181146133785760008415613366578287015190505b61337085826132f2565b8655506133d8565b601f19841661338686613162565b60005b828110156133ae57848901518255600182019150602085019450602081019050613389565b868310156133cb57848901516133c7601f8916826132d4565b8355505b6001600288020188555050505b505050505050565b60006040820190506133f5600083018561238d565b81810360208301526134078184612574565b90509392505050565b7f43616e6e6f742065786563757465207478000000000000000000000000000000600082015250565b6000613446601183612a18565b915061345182613410565b602082019050919050565b6000602082019050818103600083015261347581613439565b9050919050565b600081905092915050565b6000815461349481612d7d565b61349e818661347c565b945060018216600081146134b957600181146134ce57613501565b60ff1983168652811515820286019350613501565b6134d785613162565b60005b838110156134f9578154818901526001820191506020810190506134da565b838801955050505b50505092915050565b60006135168284613487565b915081905092915050565b7f5478206661696c65640000000000000000000000000000000000000000000000600082015250565b6000613557600983612a18565b915061356282613521565b602082019050919050565b600060208201905081810360008301526135868161354a565b9050919050565b60006040820190506135a2600083018561250e565b6135af602083018461238d565b9392505050565b6135bf816124d8565b81146135ca57600080fd5b50565b6000815190506135dc816135b6565b92915050565b6000602082840312156135f8576135f76123cf565b5b6000613606848285016135cd565b91505092915050565b600061361a8261251d565b613624818561347c565b9350613634818560208601612539565b80840191505092915050565b600061364c828461360f565b91508190509291505056fea26469706673582212200d67d894953e841c112458ab0b5f853578b57fd8b58493a81642d5f8f52ae7f664736f6c63430008140033",
  "linkReferences": {},
  "deployedLinkReferences": {}
}