{
  "_format": "hh-sol-artifact-1",
  "contractName": "OkeytooMultiSignatureWallet",
  "sourceName": "contracts/OkeytooMultiSignatureWallet.sol",
  "abi": [
    {
      "inputs": [
        {
          "internalType": "address[]",
          "name": "owners_",
          "type": "address[]"
        },
        {
          "internalType": "uint256",
          "name": "numConfirmationsRequired_",
          "type": "uint256"
        }
      ],
      "stateMutability": "nonpayable",
      "type": "constructor"
    },
    {
      "anonymous": false,
      "inputs": [
        {
          "indexed": true,
          "internalType": "address",
          "name": "owner",
          "type": "address"
        },
        {
          "indexed": true,
          "internalType": "uint256",
          "name": "txIndex",
          "type": "uint256"
        }
      ],
      "name": "ConfirmTransaction",
      "type": "event"
    },
    {
      "anonymous": false,
      "inputs": [
        {
          "indexed": true,
          "internalType": "address",
          "name": "sender",
          "type": "address"
        },
        {
          "indexed": false,
          "internalType": "uint256",
          "name": "amount",
          "type": "uint256"
        },
        {
          "indexed": false,
          "internalType": "uint256",
          "name": "balance",
          "type": "uint256"
        }
      ],
      "name": "Deposit",
      "type": "event"
    },
    {
      "anonymous": false,
      "inputs": [
        {
          "indexed": true,
          "internalType": "address",
          "name": "owner",
          "type": "address"
        },
        {
          "indexed": true,
          "internalType": "uint256",
          "name": "txIndex",
          "type": "uint256"
        }
      ],
      "name": "ExecuteTransaction",
      "type": "event"
    },
    {
      "anonymous": false,
      "inputs": [
        {
          "indexed": true,
          "internalType": "address",
          "name": "owner",
          "type": "address"
        }
      ],
      "name": "OwnerAddition",
      "type": "event"
    },
    {
      "anonymous": false,
      "inputs": [
        {
          "indexed": true,
          "internalType": "address",
          "name": "owner",
          "type": "address"
        }
      ],
      "name": "OwnerRemoval",
      "type": "event"
    },
    {
      "anonymous": false,
      "inputs": [
        {
          "indexed": false,
          "internalType": "uint256",
          "name": "required",
          "type": "uint256"
        }
      ],
      "name": "RequirementChange",
      "type": "event"
    },
    {
      "anonymous": false,
      "inputs": [
        {
          "indexed": true,
          "internalType": "address",
          "name": "owner",
          "type": "address"
        },
        {
          "indexed": true,
          "internalType": "uint256",
          "name": "txIndex",
          "type": "uint256"
        }
      ],
      "name": "RevokeConfirmation",
      "type": "event"
    },
    {
      "anonymous": false,
      "inputs": [
        {
          "indexed": true,
          "internalType": "address",
          "name": "owner",
          "type": "address"
        },
        {
          "indexed": true,
          "internalType": "uint256",
          "name": "txIndex",
          "type": "uint256"
        },
        {
          "indexed": true,
          "internalType": "address",
          "name": "to",
          "type": "address"
        },
        {
          "indexed": false,
          "internalType": "uint256",
          "name": "value",
          "type": "uint256"
        },
        {
          "indexed": false,
          "internalType": "bytes",
          "name": "data",
          "type": "bytes"
        }
      ],
      "name": "SubmitTransaction",
      "type": "event"
    },
    {
      "inputs": [
        {
          "internalType": "address",
          "name": "owner_",
          "type": "address"
        }
      ],
      "name": "addOwner",
      "outputs": [],
      "stateMutability": "nonpayable",
      "type": "function"
    },
    {
      "inputs": [
        {
          "internalType": "uint256",
          "name": "required_",
          "type": "uint256"
        }
      ],
      "name": "changeRequirement",
      "outputs": [],
      "stateMutability": "nonpayable",
      "type": "function"
    },
    {
      "inputs": [
        {
          "internalType": "uint256",
          "name": "txIndex_",
          "type": "uint256"
        }
      ],
      "name": "confirmTransaction",
      "outputs": [],
      "stateMutability": "nonpayable",
      "type": "function"
    },
    {
      "inputs": [
        {
          "internalType": "uint256",
          "name": "txIndex_",
          "type": "uint256"
        }
      ],
      "name": "executeTransaction",
      "outputs": [],
      "stateMutability": "nonpayable",
      "type": "function"
    },
    {
      "inputs": [],
      "name": "getOwners",
      "outputs": [
        {
          "internalType": "address[]",
          "name": "",
          "type": "address[]"
        }
      ],
      "stateMutability": "view",
      "type": "function"
    },
    {
      "inputs": [],
      "name": "getTransactionCount",
      "outputs": [
        {
          "internalType": "uint256",
          "name": "",
          "type": "uint256"
        }
      ],
      "stateMutability": "view",
      "type": "function"
    },
    {
      "inputs": [
        {
          "internalType": "uint256",
          "name": "txIndex_",
          "type": "uint256"
        }
      ],
      "name": "getTransactionData",
      "outputs": [
        {
          "internalType": "address",
          "name": "to",
          "type": "address"
        },
        {
          "internalType": "uint256",
          "name": "value",
          "type": "uint256"
        },
        {
          "internalType": "bytes",
          "name": "data",
          "type": "bytes"
        },
        {
          "internalType": "bool",
          "name": "executed",
          "type": "bool"
        },
        {
          "internalType": "uint256",
          "name": "numConfirmations",
          "type": "uint256"
        }
      ],
      "stateMutability": "view",
      "type": "function"
    },
    {
      "inputs": [
        {
          "internalType": "uint256",
          "name": "",
          "type": "uint256"
        },
        {
          "internalType": "address",
          "name": "",
          "type": "address"
        }
      ],
      "name": "isConfirmed",
      "outputs": [
        {
          "internalType": "bool",
          "name": "",
          "type": "bool"
        }
      ],
      "stateMutability": "view",
      "type": "function"
    },
    {
      "inputs": [
        {
          "internalType": "address",
          "name": "",
          "type": "address"
        }
      ],
      "name": "isOwner",
      "outputs": [
        {
          "internalType": "bool",
          "name": "",
          "type": "bool"
        }
      ],
      "stateMutability": "view",
      "type": "function"
    },
    {
      "inputs": [],
      "name": "numConfirmationsRequired",
      "outputs": [
        {
          "internalType": "uint256",
          "name": "",
          "type": "uint256"
        }
      ],
      "stateMutability": "view",
      "type": "function"
    },
    {
      "inputs": [
        {
          "internalType": "address payable",
          "name": "to_",
          "type": "address"
        }
      ],
      "name": "recoverETH",
      "outputs": [],
      "stateMutability": "nonpayable",
      "type": "function"
    },
    {
      "inputs": [
        {
          "internalType": "address",
          "name": "owner_",
          "type": "address"
        }
      ],
      "name": "removeOwner",
      "outputs": [],
      "stateMutability": "nonpayable",
      "type": "function"
    },
    {
      "inputs": [
        {
          "internalType": "address",
          "name": "owner_",
          "type": "address"
        },
        {
          "internalType": "address",
          "name": "newOwner_",
          "type": "address"
        }
      ],
      "name": "replaceOwner",
      "outputs": [],
      "stateMutability": "nonpayable",
      "type": "function"
    },
    {
      "inputs": [
        {
          "internalType": "uint256",
          "name": "txIndex_",
          "type": "uint256"
        }
      ],
      "name": "revokeConfirmation",
      "outputs": [],
      "stateMutability": "nonpayable",
      "type": "function"
    },
    {
      "inputs": [
        {
          "internalType": "address",
          "name": "to_",
          "type": "address"
        },
        {
          "internalType": "uint256",
          "name": "value_",
          "type": "uint256"
        },
        {
          "internalType": "bytes",
          "name": "data_",
          "type": "bytes"
        }
      ],
      "name": "submitTransaction",
      "outputs": [],
      "stateMutability": "nonpayable",
      "type": "function"
    },
    {
      "inputs": [
        {
          "internalType": "uint256",
          "name": "",
          "type": "uint256"
        }
      ],
      "name": "transactions",
      "outputs": [
        {
          "internalType": "address",
          "name": "to",
          "type": "address"
        },
        {
          "internalType": "uint256",
          "name": "value",
          "type": "uint256"
        },
        {
          "internalType": "bytes",
          "name": "data",
          "type": "bytes"
        },
        {
          "internalType": "bool",
          "name": "executed",
          "type": "bool"
        },
        {
          "internalType": "uint256",
          "name": "numConfirmations",
          "type": "uint256"
        }
      ],
      "stateMutability": "view",
      "type": "function"
    },
    {
      "inputs": [
        {
          "internalType": "address",
          "name": "token",
          "type": "address"
        }
      ],
      "name": "withdraw",
      "outputs": [],
      "stateMutability": "nonpayable",
      "type": "function"
    },
    {
      "stateMutability": "payable",
      "type": "receive"
    }
  ],
  "bytecode": "0x60806040523480156200001157600080fd5b506040516200390c3803806200390c83398181016040528101906200003791906200050d565b60008251116200007e576040517f08c379a00000000000000000000000000000000000000000000000000000000081526004016200007590620005d4565b60405180910390fd5b60008111801562000090575081518111155b620000d2576040517f08c379a0000000000000000000000000000000000000000000000000000000008152600401620000c9906200066c565b60405180910390fd5b60005b8251811015620002d4576000838281518110620000f757620000f66200068e565b5b60200260200101519050600073ffffffffffffffffffffffffffffffffffffffff168173ffffffffffffffffffffffffffffffffffffffff160362000173576040517f08c379a00000000000000000000000000000000000000000000000000000000081526004016200016a906200070d565b60405180910390fd5b600160008273ffffffffffffffffffffffffffffffffffffffff1673ffffffffffffffffffffffffffffffffffffffff16815260200190815260200160002060009054906101000a900460ff161562000203576040517f08c379a0000000000000000000000000000000000000000000000000000000008152600401620001fa906200077f565b60405180910390fd5b60018060008373ffffffffffffffffffffffffffffffffffffffff1673ffffffffffffffffffffffffffffffffffffffff16815260200190815260200160002060006101000a81548160ff0219169083151502179055506003819080600181540180825580915050600190039060005260206000200160009091909190916101000a81548173ffffffffffffffffffffffffffffffffffffffff021916908373ffffffffffffffffffffffffffffffffffffffff160217905550508080620002cb90620007d0565b915050620000d5565b508060008190555050506200081d565b6000604051905090565b600080fd5b600080fd5b600080fd5b6000601f19601f8301169050919050565b7f4e487b7100000000000000000000000000000000000000000000000000000000600052604160045260246000fd5b6200034882620002fd565b810181811067ffffffffffffffff821117156200036a57620003696200030e565b5b80604052505050565b60006200037f620002e4565b90506200038d82826200033d565b919050565b600067ffffffffffffffff821115620003b057620003af6200030e565b5b602082029050602081019050919050565b600080fd5b600073ffffffffffffffffffffffffffffffffffffffff82169050919050565b6000620003f382620003c6565b9050919050565b6200040581620003e6565b81146200041157600080fd5b50565b6000815190506200042581620003fa565b92915050565b6000620004426200043c8462000392565b62000373565b90508083825260208201905060208402830185811115620004685762000467620003c1565b5b835b8181101562000495578062000480888262000414565b8452602084019350506020810190506200046a565b5050509392505050565b600082601f830112620004b757620004b6620002f8565b5b8151620004c98482602086016200042b565b91505092915050565b6000819050919050565b620004e781620004d2565b8114620004f357600080fd5b50565b6000815190506200050781620004dc565b92915050565b60008060408385031215620005275762000526620002ee565b5b600083015167ffffffffffffffff811115620005485762000547620002f3565b5b62000556858286016200049f565b92505060206200056985828601620004f6565b9150509250929050565b600082825260208201905092915050565b7f6f776e6572732072657175697265640000000000000000000000000000000000600082015250565b6000620005bc600f8362000573565b9150620005c98262000584565b602082019050919050565b60006020820190508181036000830152620005ef81620005ad565b9050919050565b7f696e76616c6964206e756d626572206f6620726571756972656420636f6e666960008201527f726d6174696f6e73000000000000000000000000000000000000000000000000602082015250565b60006200065460288362000573565b91506200066182620005f6565b604082019050919050565b60006020820190508181036000830152620006878162000645565b9050919050565b7f4e487b7100000000000000000000000000000000000000000000000000000000600052603260045260246000fd5b7f696e76616c6964206f776e657200000000000000000000000000000000000000600082015250565b6000620006f5600d8362000573565b91506200070282620006bd565b602082019050919050565b600060208201905081810360008301526200072881620006e6565b9050919050565b7f6f776e6572206e6f7420756e6971756500000000000000000000000000000000600082015250565b60006200076760108362000573565b915062000774826200072f565b602082019050919050565b600060208201905081810360008301526200079a8162000758565b9050919050565b7f4e487b7100000000000000000000000000000000000000000000000000000000600052601160045260246000fd5b6000620007dd82620004d2565b91507fffffffffffffffffffffffffffffffffffffffffffffffffffffffffffffffff8203620008125762000811620007a1565b5b600182019050919050565b6130df806200082d6000396000f3fe6080604052600436106101025760003560e01c806380f59a6511610095578063c01a8c8411610064578063c01a8c84146103a6578063c6427474146103cf578063d0549b85146103f8578063e20056e614610423578063ee22610b1461044c57610159565b806380f59a65146102d45780639ace38c214610311578063a0e67e2b14610352578063ba51a6df1461037d57610159565b80632f54bf6e116100d15780632f54bf6e146102045780633b24b5471461024157806351cff8d9146102825780637065cb48146102ab57610159565b8063134dfcd81461015e578063173825d91461018757806320ea8d86146101b05780632e7700f0146101d957610159565b36610159573373ffffffffffffffffffffffffffffffffffffffff167f90890809c654f11d6e72a28fa60149770a0d11ec6c92319d6ceb2bb0a4ea1a15344760405161014f929190611ef8565b60405180910390a2005b600080fd5b34801561016a57600080fd5b5061018560048036038101906101809190611f93565b610475565b005b34801561019357600080fd5b506101ae60048036038101906101a99190611ffe565b61060f565b005b3480156101bc57600080fd5b506101d760048036038101906101d29190612057565b61093c565b005b3480156101e557600080fd5b506101ee610c16565b6040516101fb9190612084565b60405180910390f35b34801561021057600080fd5b5061022b60048036038101906102269190611ffe565b610c23565b60405161023891906120ba565b60405180910390f35b34801561024d57600080fd5b5061026860048036038101906102639190612057565b610c43565b604051610279959493929190612174565b60405180910390f35b34801561028e57600080fd5b506102a960048036038101906102a49190611ffe565b610d56565b005b3480156102b757600080fd5b506102d260048036038101906102cd9190611ffe565b610f63565b005b3480156102e057600080fd5b506102fb60048036038101906102f691906121ce565b61117a565b60405161030891906120ba565b60405180910390f35b34801561031d57600080fd5b5061033860048036038101906103339190612057565b6111a9565b604051610349959493929190612174565b60405180910390f35b34801561035e57600080fd5b506103676112a4565b60405161037491906122cc565b60405180910390f35b34801561038957600080fd5b506103a4600480360381019061039f9190612057565b611332565b005b3480156103b257600080fd5b506103cd60048036038101906103c89190612057565b6113e8565b005b3480156103db57600080fd5b506103f660048036038101906103f19190612423565b6116c5565b005b34801561040457600080fd5b5061040d6118c8565b60405161041a9190612084565b60405180910390f35b34801561042f57600080fd5b5061044a60048036038101906104459190612492565b6118ce565b005b34801561045857600080fd5b50610473600480360381019061046e9190612057565b611be7565b005b3073ffffffffffffffffffffffffffffffffffffffff163373ffffffffffffffffffffffffffffffffffffffff16146104ad57600080fd5b600073ffffffffffffffffffffffffffffffffffffffff168173ffffffffffffffffffffffffffffffffffffffff160361051c576040517f08c379a000000000000000000000000000000000000000000000000000000000815260040161051390612555565b60405180910390fd5b6000471161055f576040517f08c379a0000000000000000000000000000000000000000000000000000000008152600401610556906125c1565b60405180910390fd5b60008173ffffffffffffffffffffffffffffffffffffffff164760405161058590612612565b60006040518083038185875af1925050503d80600081146105c2576040519150601f19603f3d011682016040523d82523d6000602084013e6105c7565b606091505b505090508061060b576040517f08c379a000000000000000000000000000000000000000000000000000000000815260040161060290612699565b60405180910390fd5b5050565b3073ffffffffffffffffffffffffffffffffffffffff163373ffffffffffffffffffffffffffffffffffffffff161461064757600080fd5b80600160008273ffffffffffffffffffffffffffffffffffffffff1673ffffffffffffffffffffffffffffffffffffffff16815260200190815260200160002060009054906101000a900460ff1661069e57600080fd5b6001600380549050116106e6576040517f08c379a00000000000000000000000000000000000000000000000000000000081526004016106dd90612705565b60405180910390fd5b6000600160008473ffffffffffffffffffffffffffffffffffffffff1673ffffffffffffffffffffffffffffffffffffffff16815260200190815260200160002060006101000a81548160ff02191690831515021790555060005b60016003805490506107539190612754565b81101561088f578273ffffffffffffffffffffffffffffffffffffffff166003828154811061078557610784612788565b5b9060005260206000200160009054906101000a900473ffffffffffffffffffffffffffffffffffffffff1673ffffffffffffffffffffffffffffffffffffffff160361087c57600360016003805490506107df9190612754565b815481106107f0576107ef612788565b5b9060005260206000200160009054906101000a900473ffffffffffffffffffffffffffffffffffffffff166003828154811061082f5761082e612788565b5b9060005260206000200160006101000a81548173ffffffffffffffffffffffffffffffffffffffff021916908373ffffffffffffffffffffffffffffffffffffffff16021790555061088f565b8080610887906127b7565b915050610741565b5060038054806108a2576108a16127ff565b5b6001900381819060005260206000200160006101000a81549073ffffffffffffffffffffffffffffffffffffffff0219169055905560038054905060005411156108f5576108f4600380549050611332565b5b8173ffffffffffffffffffffffffffffffffffffffff167f8001553a916ef2f495d26a907cc54d96ed840d7bda71e73194bf5a9df7a76b9060405160405180910390a25050565b600160003373ffffffffffffffffffffffffffffffffffffffff1673ffffffffffffffffffffffffffffffffffffffff16815260200190815260200160002060009054906101000a900460ff166109c8576040517f08c379a00000000000000000000000000000000000000000000000000000000081526004016109bf9061287a565b60405180910390fd5b806004805490508110610a10576040517f08c379a0000000000000000000000000000000000000000000000000000000008152600401610a07906128e6565b60405180910390fd5b8160048181548110610a2557610a24612788565b5b906000526020600020906005020160030160009054906101000a900460ff1615610a84576040517f08c379a0000000000000000000000000000000000000000000000000000000008152600401610a7b90612952565b60405180910390fd5b600060048481548110610a9a57610a99612788565b5b906000526020600020906005020190506002600085815260200190815260200160002060003373ffffffffffffffffffffffffffffffffffffffff1673ffffffffffffffffffffffffffffffffffffffff16815260200190815260200160002060009054906101000a900460ff16610b47576040517f08c379a0000000000000000000000000000000000000000000000000000000008152600401610b3e906129be565b60405180910390fd5b6001816004016000828254610b5c9190612754565b9250508190555060006002600086815260200190815260200160002060003373ffffffffffffffffffffffffffffffffffffffff1673ffffffffffffffffffffffffffffffffffffffff16815260200190815260200160002060006101000a81548160ff021916908315150217905550833373ffffffffffffffffffffffffffffffffffffffff167ff0dca620e2e81f7841d07bcc105e1704fb01475b278a9d4c236e1c62945edd5560405160405180910390a350505050565b6000600480549050905090565b60016020528060005260406000206000915054906101000a900460ff1681565b6000806060600080600060048781548110610c6157610c60612788565b5b906000526020600020906005020190508060000160009054906101000a900473ffffffffffffffffffffffffffffffffffffffff168160010154826002018360030160009054906101000a900460ff168460040154828054610cc290612a0d565b80601f0160208091040260200160405190810160405280929190818152602001828054610cee90612a0d565b8015610d3b5780601f10610d1057610100808354040283529160200191610d3b565b820191906000526020600020905b815481529060010190602001808311610d1e57829003601f168201915b50505050509250955095509550955095505091939590929450565b3073ffffffffffffffffffffffffffffffffffffffff163373ffffffffffffffffffffffffffffffffffffffff1614610d8e57600080fd5b60008173ffffffffffffffffffffffffffffffffffffffff166370a08231306040518263ffffffff1660e01b8152600401610dc99190612a3e565b602060405180830381865afa158015610de6573d6000803e3d6000fd5b505050506040513d601f19601f82011682018060405250810190610e0a9190612a6e565b905060008111610e4f576040517f08c379a0000000000000000000000000000000000000000000000000000000008152600401610e4690612ae7565b60405180910390fd5b6000600282610e5e9190612b36565b90508273ffffffffffffffffffffffffffffffffffffffff1663a9059cbb33836040518363ffffffff1660e01b8152600401610e9b929190612b67565b6020604051808303816000875af1158015610eba573d6000803e3d6000fd5b505050506040513d601f19601f82011682018060405250810190610ede9190612bbc565b508273ffffffffffffffffffffffffffffffffffffffff1663a9059cbb33836040518363ffffffff1660e01b8152600401610f1a929190612b67565b6020604051808303816000875af1158015610f39573d6000803e3d6000fd5b505050506040513d601f19601f82011682018060405250810190610f5d9190612bbc565b50505050565b3073ffffffffffffffffffffffffffffffffffffffff163373ffffffffffffffffffffffffffffffffffffffff1614610f9b57600080fd5b80600160008273ffffffffffffffffffffffffffffffffffffffff1673ffffffffffffffffffffffffffffffffffffffff16815260200190815260200160002060009054906101000a900460ff1615610ff357600080fd5b81600073ffffffffffffffffffffffffffffffffffffffff168173ffffffffffffffffffffffffffffffffffffffff160361102d57600080fd5b600160038054905061103f9190612be9565b600054601e82111580156110535750818111155b8015611060575060008114155b801561106d575060008214155b61107657600080fd5b60018060008773ffffffffffffffffffffffffffffffffffffffff1673ffffffffffffffffffffffffffffffffffffffff16815260200190815260200160002060006101000a81548160ff0219169083151502179055506003859080600181540180825580915050600190039060005260206000200160009091909190916101000a81548173ffffffffffffffffffffffffffffffffffffffff021916908373ffffffffffffffffffffffffffffffffffffffff1602179055508473ffffffffffffffffffffffffffffffffffffffff167ff39e6e1eb0edcf53c221607b54b00cd28f3196fed0a24994dc308b8f611b682d60405160405180910390a25050505050565b60026020528160005260406000206020528060005260406000206000915091509054906101000a900460ff1681565b600481815481106111b957600080fd5b90600052602060002090600502016000915090508060000160009054906101000a900473ffffffffffffffffffffffffffffffffffffffff169080600101549080600201805461120890612a0d565b80601f016020809104026020016040519081016040528092919081815260200182805461123490612a0d565b80156112815780601f1061125657610100808354040283529160200191611281565b820191906000526020600020905b81548152906001019060200180831161126457829003601f168201915b5050505050908060030160009054906101000a900460ff16908060040154905085565b6060600380548060200260200160405190810160405280929190818152602001828054801561132857602002820191906000526020600020905b8160009054906101000a900473ffffffffffffffffffffffffffffffffffffffff1673ffffffffffffffffffffffffffffffffffffffff16815260200190600101908083116112de575b5050505050905090565b3073ffffffffffffffffffffffffffffffffffffffff163373ffffffffffffffffffffffffffffffffffffffff161461136a57600080fd5b60038054905081601e82111580156113825750818111155b801561138f575060008114155b801561139c575060008214155b6113a557600080fd5b826000819055507fa3f1ee9126a074d9326c682f561767f710e927faa811f7a99829d49dc421797a836040516113db9190612084565b60405180910390a1505050565b600160003373ffffffffffffffffffffffffffffffffffffffff1673ffffffffffffffffffffffffffffffffffffffff16815260200190815260200160002060009054906101000a900460ff16611474576040517f08c379a000000000000000000000000000000000000000000000000000000000815260040161146b9061287a565b60405180910390fd5b8060048054905081106114bc576040517f08c379a00000000000000000000000000000000000000000000000000000000081526004016114b3906128e6565b60405180910390fd5b81600481815481106114d1576114d0612788565b5b906000526020600020906005020160030160009054906101000a900460ff1615611530576040517f08c379a000000000000000000000000000000000000000000000000000000000815260040161152790612952565b60405180910390fd5b826002600082815260200190815260200160002060003373ffffffffffffffffffffffffffffffffffffffff1673ffffffffffffffffffffffffffffffffffffffff16815260200190815260200160002060009054906101000a900460ff16156115cf576040517f08c379a00000000000000000000000000000000000000000000000000000000081526004016115c690612c69565b60405180910390fd5b6000600485815481106115e5576115e4612788565b5b90600052602060002090600502019050600181600401600082825461160a9190612be9565b9250508190555060016002600087815260200190815260200160002060003373ffffffffffffffffffffffffffffffffffffffff1673ffffffffffffffffffffffffffffffffffffffff16815260200190815260200160002060006101000a81548160ff021916908315150217905550843373ffffffffffffffffffffffffffffffffffffffff167f5cbe105e36805f7820e291f799d5794ff948af2a5f664e580382defb6339004160405160405180910390a35050505050565b600160003373ffffffffffffffffffffffffffffffffffffffff1673ffffffffffffffffffffffffffffffffffffffff16815260200190815260200160002060009054906101000a900460ff16611751576040517f08c379a00000000000000000000000000000000000000000000000000000000081526004016117489061287a565b60405180910390fd5b6000600480549050905060046040518060a001604052808673ffffffffffffffffffffffffffffffffffffffff1681526020018581526020018481526020016000151581526020016000815250908060018154018082558091505060019003906000526020600020906005020160009091909190915060008201518160000160006101000a81548173ffffffffffffffffffffffffffffffffffffffff021916908373ffffffffffffffffffffffffffffffffffffffff16021790555060208201518160010155604082015181600201908161182d9190612e35565b5060608201518160030160006101000a81548160ff0219169083151502179055506080820151816004015550508373ffffffffffffffffffffffffffffffffffffffff16813373ffffffffffffffffffffffffffffffffffffffff167fd5a05bf70715ad82a09a756320284a1b54c9ff74cd0f8cce6219e79b563fe59d86866040516118ba929190612f07565b60405180910390a450505050565b60005481565b3073ffffffffffffffffffffffffffffffffffffffff163373ffffffffffffffffffffffffffffffffffffffff161461190657600080fd5b81600160008273ffffffffffffffffffffffffffffffffffffffff1673ffffffffffffffffffffffffffffffffffffffff16815260200190815260200160002060009054906101000a900460ff1661195d57600080fd5b81600160008273ffffffffffffffffffffffffffffffffffffffff1673ffffffffffffffffffffffffffffffffffffffff16815260200190815260200160002060009054906101000a900460ff16156119b557600080fd5b60005b600380549050811015611aab578473ffffffffffffffffffffffffffffffffffffffff16600382815481106119f0576119ef612788565b5b9060005260206000200160009054906101000a900473ffffffffffffffffffffffffffffffffffffffff1673ffffffffffffffffffffffffffffffffffffffff1603611a98578360038281548110611a4b57611a4a612788565b5b9060005260206000200160006101000a81548173ffffffffffffffffffffffffffffffffffffffff021916908373ffffffffffffffffffffffffffffffffffffffff160217905550611aab565b8080611aa3906127b7565b9150506119b8565b506000600160008673ffffffffffffffffffffffffffffffffffffffff1673ffffffffffffffffffffffffffffffffffffffff16815260200190815260200160002060006101000a81548160ff02191690831515021790555060018060008573ffffffffffffffffffffffffffffffffffffffff1673ffffffffffffffffffffffffffffffffffffffff16815260200190815260200160002060006101000a81548160ff0219169083151502179055508373ffffffffffffffffffffffffffffffffffffffff167f8001553a916ef2f495d26a907cc54d96ed840d7bda71e73194bf5a9df7a76b9060405160405180910390a28273ffffffffffffffffffffffffffffffffffffffff167ff39e6e1eb0edcf53c221607b54b00cd28f3196fed0a24994dc308b8f611b682d60405160405180910390a250505050565b600160003373ffffffffffffffffffffffffffffffffffffffff1673ffffffffffffffffffffffffffffffffffffffff16815260200190815260200160002060009054906101000a900460ff16611c73576040517f08c379a0000000000000000000000000000000000000000000000000000000008152600401611c6a9061287a565b60405180910390fd5b806004805490508110611cbb576040517f08c379a0000000000000000000000000000000000000000000000000000000008152600401611cb2906128e6565b60405180910390fd5b8160048181548110611cd057611ccf612788565b5b906000526020600020906005020160030160009054906101000a900460ff1615611d2f576040517f08c379a0000000000000000000000000000000000000000000000000000000008152600401611d2690612952565b60405180910390fd5b600060048481548110611d4557611d44612788565b5b9060005260206000209060050201905060005481600401541015611d9e576040517f08c379a0000000000000000000000000000000000000000000000000000000008152600401611d9590612f83565b60405180910390fd5b60018160030160006101000a81548160ff02191690831515021790555060008160000160009054906101000a900473ffffffffffffffffffffffffffffffffffffffff1673ffffffffffffffffffffffffffffffffffffffff16826001015483600201604051611e0e9190613026565b60006040518083038185875af1925050503d8060008114611e4b576040519150601f19603f3d011682016040523d82523d6000602084013e611e50565b606091505b5050905080611e94576040517f08c379a0000000000000000000000000000000000000000000000000000000008152600401611e8b90613089565b60405180910390fd5b843373ffffffffffffffffffffffffffffffffffffffff167f5445f318f4f5fcfb66592e68e0cc5822aa15664039bd5f0ffde24c5a8142b1ac60405160405180910390a35050505050565b6000819050919050565b611ef281611edf565b82525050565b6000604082019050611f0d6000830185611ee9565b611f1a6020830184611ee9565b9392505050565b6000604051905090565b600080fd5b600080fd5b600073ffffffffffffffffffffffffffffffffffffffff82169050919050565b6000611f6082611f35565b9050919050565b611f7081611f55565b8114611f7b57600080fd5b50565b600081359050611f8d81611f67565b92915050565b600060208284031215611fa957611fa8611f2b565b5b6000611fb784828501611f7e565b91505092915050565b6000611fcb82611f35565b9050919050565b611fdb81611fc0565b8114611fe657600080fd5b50565b600081359050611ff881611fd2565b92915050565b60006020828403121561201457612013611f2b565b5b600061202284828501611fe9565b91505092915050565b61203481611edf565b811461203f57600080fd5b50565b6000813590506120518161202b565b92915050565b60006020828403121561206d5761206c611f2b565b5b600061207b84828501612042565b91505092915050565b60006020820190506120996000830184611ee9565b92915050565b60008115159050919050565b6120b48161209f565b82525050565b60006020820190506120cf60008301846120ab565b92915050565b6120de81611fc0565b82525050565b600081519050919050565b600082825260208201905092915050565b60005b8381101561211e578082015181840152602081019050612103565b60008484015250505050565b6000601f19601f8301169050919050565b6000612146826120e4565b61215081856120ef565b9350612160818560208601612100565b6121698161212a565b840191505092915050565b600060a08201905061218960008301886120d5565b6121966020830187611ee9565b81810360408301526121a8818661213b565b90506121b760608301856120ab565b6121c46080830184611ee9565b9695505050505050565b600080604083850312156121e5576121e4611f2b565b5b60006121f385828601612042565b925050602061220485828601611fe9565b9150509250929050565b600081519050919050565b600082825260208201905092915050565b6000819050602082019050919050565b61224381611fc0565b82525050565b6000612255838361223a565b60208301905092915050565b6000602082019050919050565b60006122798261220e565b6122838185612219565b935061228e8361222a565b8060005b838110156122bf5781516122a68882612249565b97506122b183612261565b925050600181019050612292565b5085935050505092915050565b600060208201905081810360008301526122e6818461226e565b905092915050565b600080fd5b600080fd5b7f4e487b7100000000000000000000000000000000000000000000000000000000600052604160045260246000fd5b6123308261212a565b810181811067ffffffffffffffff8211171561234f5761234e6122f8565b5b80604052505050565b6000612362611f21565b905061236e8282612327565b919050565b600067ffffffffffffffff82111561238e5761238d6122f8565b5b6123978261212a565b9050602081019050919050565b82818337600083830152505050565b60006123c66123c184612373565b612358565b9050828152602081018484840111156123e2576123e16122f3565b5b6123ed8482856123a4565b509392505050565b600082601f83011261240a576124096122ee565b5b813561241a8482602086016123b3565b91505092915050565b60008060006060848603121561243c5761243b611f2b565b5b600061244a86828701611fe9565b935050602061245b86828701612042565b925050604084013567ffffffffffffffff81111561247c5761247b611f30565b5b612488868287016123f5565b9150509250925092565b600080604083850312156124a9576124a8611f2b565b5b60006124b785828601611fe9565b92505060206124c885828601611fe9565b9150509250929050565b600082825260208201905092915050565b7f45524332303a207472616e7366657220746f20746865207a65726f206164647260008201527f6573730000000000000000000000000000000000000000000000000000000000602082015250565b600061253f6023836124d2565b915061254a826124e3565b604082019050919050565b6000602082019050818103600083015261256e81612532565b9050919050565b7f45524332303a207a65726f206e61746976652062616c616e6365000000000000600082015250565b60006125ab601a836124d2565b91506125b682612575565b602082019050919050565b600060208201905081810360008301526125da8161259e565b9050919050565b600081905092915050565b50565b60006125fc6000836125e1565b9150612607826125ec565b600082019050919050565b600061261d826125ef565b9150819050919050565b7f45524332303a204554485f54585f4641494c206f6e207265636f76657220455460008201527f4800000000000000000000000000000000000000000000000000000000000000602082015250565b60006126836021836124d2565b915061268e82612627565b604082019050919050565b600060208201905081810360008301526126b281612676565b9050919050565b7f43616e6e6f742072656d6f7665206c617374206f776e65720000000000000000600082015250565b60006126ef6018836124d2565b91506126fa826126b9565b602082019050919050565b6000602082019050818103600083015261271e816126e2565b9050919050565b7f4e487b7100000000000000000000000000000000000000000000000000000000600052601160045260246000fd5b600061275f82611edf565b915061276a83611edf565b925082820390508181111561278257612781612725565b5b92915050565b7f4e487b7100000000000000000000000000000000000000000000000000000000600052603260045260246000fd5b60006127c282611edf565b91507fffffffffffffffffffffffffffffffffffffffffffffffffffffffffffffffff82036127f4576127f3612725565b5b600182019050919050565b7f4e487b7100000000000000000000000000000000000000000000000000000000600052603160045260246000fd5b7f4e6f74206f776e65720000000000000000000000000000000000000000000000600082015250565b60006128646009836124d2565b915061286f8261282e565b602082019050919050565b6000602082019050818103600083015261289381612857565b9050919050565b7f747820646f6573206e6f74206578697374000000000000000000000000000000600082015250565b60006128d06011836124d2565b91506128db8261289a565b602082019050919050565b600060208201905081810360008301526128ff816128c3565b9050919050565b7f747820616c726561647920657865637574656400000000000000000000000000600082015250565b600061293c6013836124d2565b915061294782612906565b602082019050919050565b6000602082019050818103600083015261296b8161292f565b9050919050565b7f5478206973206e6f7420636f6e6669726d656400000000000000000000000000600082015250565b60006129a86013836124d2565b91506129b382612972565b602082019050919050565b600060208201905081810360008301526129d78161299b565b9050919050565b7f4e487b7100000000000000000000000000000000000000000000000000000000600052602260045260246000fd5b60006002820490506001821680612a2557607f821691505b602082108103612a3857612a376129de565b5b50919050565b6000602082019050612a5360008301846120d5565b92915050565b600081519050612a688161202b565b92915050565b600060208284031215612a8457612a83611f2b565b5b6000612a9284828501612a59565b91505092915050565b7f496e73756666696369656e7420746f6b656e2062616c616e6365000000000000600082015250565b6000612ad1601a836124d2565b9150612adc82612a9b565b602082019050919050565b60006020820190508181036000830152612b0081612ac4565b9050919050565b7f4e487b7100000000000000000000000000000000000000000000000000000000600052601260045260246000fd5b6000612b4182611edf565b9150612b4c83611edf565b925082612b5c57612b5b612b07565b5b828204905092915050565b6000604082019050612b7c60008301856120d5565b612b896020830184611ee9565b9392505050565b612b998161209f565b8114612ba457600080fd5b50565b600081519050612bb681612b90565b92915050565b600060208284031215612bd257612bd1611f2b565b5b6000612be084828501612ba7565b91505092915050565b6000612bf482611edf565b9150612bff83611edf565b9250828201905080821115612c1757612c16612725565b5b92915050565b7f747820616c726561647920636f6e6669726d6564000000000000000000000000600082015250565b6000612c536014836124d2565b9150612c5e82612c1d565b602082019050919050565b60006020820190508181036000830152612c8281612c46565b9050919050565b60008190508160005260206000209050919050565b60006020601f8301049050919050565b600082821b905092915050565b600060088302612ceb7fffffffffffffffffffffffffffffffffffffffffffffffffffffffffffffffff82612cae565b612cf58683612cae565b95508019841693508086168417925050509392505050565b6000819050919050565b6000612d32612d2d612d2884611edf565b612d0d565b611edf565b9050919050565b6000819050919050565b612d4c83612d17565b612d60612d5882612d39565b848454612cbb565b825550505050565b600090565b612d75612d68565b612d80818484612d43565b505050565b5b81811015612da457612d99600082612d6d565b600181019050612d86565b5050565b601f821115612de957612dba81612c89565b612dc384612c9e565b81016020851015612dd2578190505b612de6612dde85612c9e565b830182612d85565b50505b505050565b600082821c905092915050565b6000612e0c60001984600802612dee565b1980831691505092915050565b6000612e258383612dfb565b9150826002028217905092915050565b612e3e826120e4565b67ffffffffffffffff811115612e5757612e566122f8565b5b612e618254612a0d565b612e6c828285612da8565b600060209050601f831160018114612e9f5760008415612e8d578287015190505b612e978582612e19565b865550612eff565b601f198416612ead86612c89565b60005b82811015612ed557848901518255600182019150602085019450602081019050612eb0565b86831015612ef25784890151612eee601f891682612dfb565b8355505b6001600288020188555050505b505050505050565b6000604082019050612f1c6000830185611ee9565b8181036020830152612f2e818461213b565b90509392505050565b7f43616e6e6f742065786563757465207478000000000000000000000000000000600082015250565b6000612f6d6011836124d2565b9150612f7882612f37565b602082019050919050565b60006020820190508181036000830152612f9c81612f60565b9050919050565b60008154612fb081612a0d565b612fba81866125e1565b94506001821660008114612fd55760018114612fea5761301d565b60ff198316865281151582028601935061301d565b612ff385612c89565b60005b8381101561301557815481890152600182019150602081019050612ff6565b838801955050505b50505092915050565b60006130328284612fa3565b915081905092915050565b7f5478206661696c65640000000000000000000000000000000000000000000000600082015250565b60006130736009836124d2565b915061307e8261303d565b602082019050919050565b600060208201905081810360008301526130a281613066565b905091905056fea2646970667358221220e603c37d45b636935586929662a4d2b631960c9ed1bf3ecbe614fb5338522f3364736f6c63430008140033",
  "linkReferences": {},
  "deployedLinkReferences": {}
}