{
  "_format": "hh-sol-artifact-1",
  "contractName": "OkeytooPlayer",
  "sourceName": "contracts/OkeytooPlayer.sol",
  "abi": [
    {
      "inputs": [
        {
          "internalType": "address",
          "name": "target",
          "type": "address"
        }
      ],
      "name": "AddressEmptyCode",
      "type": "error"
    },
    {
      "inputs": [
        {
          "internalType": "address",
          "name": "account",
          "type": "address"
        }
      ],
      "name": "AddressInsufficientBalance",
      "type": "error"
    },
    {
      "inputs": [],
      "name": "ERC721EnumerableForbiddenBatchMint",
      "type": "error"
    },
    {
      "inputs": [
        {
          "internalType": "address",
          "name": "sender",
          "type": "address"
        },
        {
          "internalType": "uint256",
          "name": "tokenId",
          "type": "uint256"
        },
        {
          "internalType": "address",
          "name": "owner",
          "type": "address"
        }
      ],
      "name": "ERC721IncorrectOwner",
      "type": "error"
    },
    {
      "inputs": [
        {
          "internalType": "address",
          "name": "operator",
          "type": "address"
        },
        {
          "internalType": "uint256",
          "name": "tokenId",
          "type": "uint256"
        }
      ],
      "name": "ERC721InsufficientApproval",
      "type": "error"
    },
    {
      "inputs": [
        {
          "internalType": "address",
          "name": "approver",
          "type": "address"
        }
      ],
      "name": "ERC721InvalidApprover",
      "type": "error"
    },
    {
      "inputs": [
        {
          "internalType": "address",
          "name": "operator",
          "type": "address"
        }
      ],
      "name": "ERC721InvalidOperator",
      "type": "error"
    },
    {
      "inputs": [
        {
          "internalType": "address",
          "name": "owner",
          "type": "address"
        }
      ],
      "name": "ERC721InvalidOwner",
      "type": "error"
    },
    {
      "inputs": [
        {
          "internalType": "address",
          "name": "receiver",
          "type": "address"
        }
      ],
      "name": "ERC721InvalidReceiver",
      "type": "error"
    },
    {
      "inputs": [
        {
          "internalType": "address",
          "name": "sender",
          "type": "address"
        }
      ],
      "name": "ERC721InvalidSender",
      "type": "error"
    },
    {
      "inputs": [
        {
          "internalType": "uint256",
          "name": "tokenId",
          "type": "uint256"
        }
      ],
      "name": "ERC721NonexistentToken",
      "type": "error"
    },
    {
      "inputs": [
        {
          "internalType": "address",
          "name": "owner",
          "type": "address"
        },
        {
          "internalType": "uint256",
          "name": "index",
          "type": "uint256"
        }
      ],
      "name": "ERC721OutOfBoundsIndex",
      "type": "error"
    },
    {
      "inputs": [],
      "name": "FailedInnerCall",
      "type": "error"
    },
    {
      "inputs": [],
      "name": "InvalidInitialization",
      "type": "error"
    },
    {
      "inputs": [],
      "name": "NotInitializing",
      "type": "error"
    },
    {
      "inputs": [
        {
          "internalType": "address",
          "name": "owner",
          "type": "address"
        }
      ],
      "name": "OwnableInvalidOwner",
      "type": "error"
    },
    {
      "inputs": [
        {
          "internalType": "address",
          "name": "account",
          "type": "address"
        }
      ],
      "name": "OwnableUnauthorizedAccount",
      "type": "error"
    },
    {
      "inputs": [
        {
          "internalType": "address",
          "name": "token",
          "type": "address"
        }
      ],
      "name": "SafeERC20FailedOperation",
      "type": "error"
    },
    {
      "anonymous": false,
      "inputs": [
        {
          "indexed": true,
          "internalType": "address",
          "name": "owner",
          "type": "address"
        },
        {
          "indexed": true,
          "internalType": "address",
          "name": "approved",
          "type": "address"
        },
        {
          "indexed": true,
          "internalType": "uint256",
          "name": "tokenId",
          "type": "uint256"
        }
      ],
      "name": "Approval",
      "type": "event"
    },
    {
      "anonymous": false,
      "inputs": [
        {
          "indexed": true,
          "internalType": "address",
          "name": "owner",
          "type": "address"
        },
        {
          "indexed": true,
          "internalType": "address",
          "name": "operator",
          "type": "address"
        },
        {
          "indexed": false,
          "internalType": "bool",
          "name": "approved",
          "type": "bool"
        }
      ],
      "name": "ApprovalForAll",
      "type": "event"
    },
    {
      "anonymous": false,
      "inputs": [
        {
          "indexed": true,
          "internalType": "string",
          "name": "oldValue",
          "type": "string"
        },
        {
          "indexed": true,
          "internalType": "string",
          "name": "newValue",
          "type": "string"
        }
      ],
      "name": "BaseURIUpdated",
      "type": "event"
    },
    {
      "anonymous": false,
      "inputs": [
        {
          "indexed": false,
          "internalType": "uint64",
          "name": "version",
          "type": "uint64"
        }
      ],
      "name": "Initialized",
      "type": "event"
    },
    {
      "anonymous": false,
      "inputs": [
        {
          "indexed": true,
          "internalType": "address",
          "name": "minter",
          "type": "address"
        },
        {
          "indexed": true,
          "internalType": "uint256",
          "name": "tokenId",
          "type": "uint256"
        }
      ],
      "name": "LogTokenMinted",
      "type": "event"
    },
    {
      "anonymous": false,
      "inputs": [
        {
          "indexed": true,
          "internalType": "uint256",
          "name": "oldValue",
          "type": "uint256"
        },
        {
          "indexed": true,
          "internalType": "uint256",
          "name": "newValue",
          "type": "uint256"
        }
      ],
      "name": "MintPriceUpdated",
      "type": "event"
    },
    {
      "anonymous": false,
      "inputs": [
        {
          "indexed": true,
          "internalType": "address",
          "name": "account",
          "type": "address"
        },
        {
          "indexed": false,
          "internalType": "uint256",
          "name": "tokenId",
          "type": "uint256"
        },
        {
          "indexed": false,
          "internalType": "uint256",
          "name": "totalAmount",
          "type": "uint256"
        },
        {
          "indexed": false,
          "internalType": "uint256",
          "name": "amount",
          "type": "uint256"
        }
      ],
      "name": "OKTDepositReceived",
      "type": "event"
    },
    {
      "anonymous": false,
      "inputs": [
        {
          "indexed": true,
          "internalType": "address",
          "name": "previousOwner",
          "type": "address"
        },
        {
          "indexed": true,
          "internalType": "address",
          "name": "newOwner",
          "type": "address"
        }
      ],
      "name": "OwnershipTransferred",
      "type": "event"
    },
    {
      "anonymous": false,
      "inputs": [
        {
          "indexed": true,
          "internalType": "address",
          "name": "from",
          "type": "address"
        },
        {
          "indexed": true,
          "internalType": "address",
          "name": "to",
          "type": "address"
        },
        {
          "indexed": true,
          "internalType": "uint256",
          "name": "tokenId",
          "type": "uint256"
        }
      ],
      "name": "Transfer",
      "type": "event"
    },
    {
      "anonymous": false,
      "inputs": [
        {
          "indexed": true,
          "internalType": "address",
          "name": "account",
          "type": "address"
        },
        {
          "indexed": false,
          "internalType": "uint256",
          "name": "tokenId",
          "type": "uint256"
        },
        {
          "indexed": false,
          "internalType": "uint256",
          "name": "totalAmount",
          "type": "uint256"
        },
        {
          "indexed": false,
          "internalType": "uint256",
          "name": "amount",
          "type": "uint256"
        }
      ],
      "name": "USDTDepositReceived",
      "type": "event"
    },
    {
      "anonymous": false,
      "inputs": [
        {
          "indexed": true,
          "internalType": "address",
          "name": "account",
          "type": "address"
        },
        {
          "indexed": false,
          "internalType": "uint256",
          "name": "tokenId",
          "type": "uint256"
        },
        {
          "indexed": false,
          "internalType": "uint256",
          "name": "amount",
          "type": "uint256"
        }
      ],
      "name": "Withdrawn",
      "type": "event"
    },
    {
      "inputs": [
        {
          "internalType": "address",
          "name": "to",
          "type": "address"
        },
        {
          "internalType": "uint256",
          "name": "tokenId",
          "type": "uint256"
        }
      ],
      "name": "approve",
      "outputs": [],
      "stateMutability": "nonpayable",
      "type": "function"
    },
    {
      "inputs": [
        {
          "internalType": "address",
          "name": "owner",
          "type": "address"
        }
      ],
      "name": "balanceOf",
      "outputs": [
        {
          "internalType": "uint256",
          "name": "",
          "type": "uint256"
        }
      ],
      "stateMutability": "view",
      "type": "function"
    },
    {
      "inputs": [
        {
          "internalType": "uint256",
          "name": "amount",
          "type": "uint256"
        },
        {
          "internalType": "uint256",
          "name": "deadline",
          "type": "uint256"
        },
        {
          "internalType": "uint8",
          "name": "v",
          "type": "uint8"
        },
        {
          "internalType": "bytes32",
          "name": "r",
          "type": "bytes32"
        },
        {
          "internalType": "bytes32",
          "name": "s",
          "type": "bytes32"
        }
      ],
      "name": "depositOKTWithPermit",
      "outputs": [],
      "stateMutability": "nonpayable",
      "type": "function"
    },
    {
      "inputs": [
        {
          "internalType": "uint256",
          "name": "amount",
          "type": "uint256"
        },
        {
          "internalType": "uint256",
          "name": "deadline",
          "type": "uint256"
        },
        {
          "internalType": "uint8",
          "name": "v",
          "type": "uint8"
        },
        {
          "internalType": "bytes32",
          "name": "r",
          "type": "bytes32"
        },
        {
          "internalType": "bytes32",
          "name": "s",
          "type": "bytes32"
        }
      ],
      "name": "depositUSDTWithPermit",
      "outputs": [],
      "stateMutability": "nonpayable",
      "type": "function"
    },
    {
      "inputs": [
        {
          "internalType": "uint256",
          "name": "amountIn",
          "type": "uint256"
        }
      ],
      "name": "getAmountOutForOKT",
      "outputs": [
        {
          "internalType": "uint256",
          "name": "amountOut",
          "type": "uint256"
        }
      ],
      "stateMutability": "view",
      "type": "function"
    },
    {
      "inputs": [
        {
          "internalType": "uint256",
          "name": "tokenId",
          "type": "uint256"
        }
      ],
      "name": "getApproved",
      "outputs": [
        {
          "internalType": "address",
          "name": "",
          "type": "address"
        }
      ],
      "stateMutability": "view",
      "type": "function"
    },
    {
      "inputs": [
        {
          "internalType": "string",
          "name": "name_",
          "type": "string"
        },
        {
          "internalType": "string",
          "name": "symbol_",
          "type": "string"
        },
        {
          "internalType": "address",
          "name": "_operator",
          "type": "address"
        },
        {
          "internalType": "string",
          "name": "_uri",
          "type": "string"
        },
        {
          "internalType": "address",
          "name": "_token",
          "type": "address"
        },
        {
          "internalType": "address",
          "name": "_usdt",
          "type": "address"
        },
        {
          "internalType": "address",
          "name": "_swapRouter",
          "type": "address"
        }
      ],
      "name": "initialize",
      "outputs": [],
      "stateMutability": "nonpayable",
      "type": "function"
    },
    {
      "inputs": [
        {
          "internalType": "address",
          "name": "owner",
          "type": "address"
        },
        {
          "internalType": "address",
          "name": "operator",
          "type": "address"
        }
      ],
      "name": "isApprovedForAll",
      "outputs": [
        {
          "internalType": "bool",
          "name": "",
          "type": "bool"
        }
      ],
      "stateMutability": "view",
      "type": "function"
    },
    {
      "inputs": [],
      "name": "name",
      "outputs": [
        {
          "internalType": "string",
          "name": "",
          "type": "string"
        }
      ],
      "stateMutability": "view",
      "type": "function"
    },
    {
      "inputs": [],
      "name": "operator",
      "outputs": [
        {
          "internalType": "address",
          "name": "",
          "type": "address"
        }
      ],
      "stateMutability": "view",
      "type": "function"
    },
    {
      "inputs": [],
      "name": "owner",
      "outputs": [
        {
          "internalType": "address",
          "name": "",
          "type": "address"
        }
      ],
      "stateMutability": "view",
      "type": "function"
    },
    {
      "inputs": [
        {
          "internalType": "uint256",
          "name": "tokenId",
          "type": "uint256"
        }
      ],
      "name": "ownerOf",
      "outputs": [
        {
          "internalType": "address",
          "name": "",
          "type": "address"
        }
      ],
      "stateMutability": "view",
      "type": "function"
    },
    {
      "inputs": [
        {
          "internalType": "address",
          "name": "token_",
          "type": "address"
        }
      ],
      "name": "recoverToken",
      "outputs": [],
      "stateMutability": "nonpayable",
      "type": "function"
    },
    {
      "inputs": [],
      "name": "renounceOwnership",
      "outputs": [],
      "stateMutability": "nonpayable",
      "type": "function"
    },
    {
      "inputs": [
        {
          "internalType": "address",
          "name": "from",
          "type": "address"
        },
        {
          "internalType": "address",
          "name": "to",
          "type": "address"
        },
        {
          "internalType": "uint256",
          "name": "tokenId",
          "type": "uint256"
        }
      ],
      "name": "safeTransferFrom",
      "outputs": [],
      "stateMutability": "nonpayable",
      "type": "function"
    },
    {
      "inputs": [
        {
          "internalType": "address",
          "name": "from",
          "type": "address"
        },
        {
          "internalType": "address",
          "name": "to",
          "type": "address"
        },
        {
          "internalType": "uint256",
          "name": "tokenId",
          "type": "uint256"
        },
        {
          "internalType": "bytes",
          "name": "data",
          "type": "bytes"
        }
      ],
      "name": "safeTransferFrom",
      "outputs": [],
      "stateMutability": "nonpayable",
      "type": "function"
    },
    {
      "inputs": [
        {
          "internalType": "address",
          "name": "operator",
          "type": "address"
        },
        {
          "internalType": "bool",
          "name": "approved",
          "type": "bool"
        }
      ],
      "name": "setApprovalForAll",
      "outputs": [],
      "stateMutability": "nonpayable",
      "type": "function"
    },
    {
      "inputs": [
        {
          "internalType": "string",
          "name": "_newBaseURI",
          "type": "string"
        }
      ],
      "name": "setBaseURI",
      "outputs": [],
      "stateMutability": "nonpayable",
      "type": "function"
    },
    {
      "inputs": [
        {
          "internalType": "bool",
          "name": "_directSwapEnabled",
          "type": "bool"
        }
      ],
      "name": "setDirectSwapEnabled",
      "outputs": [],
      "stateMutability": "nonpayable",
      "type": "function"
    },
    {
      "inputs": [
        {
          "internalType": "uint8",
          "name": "_usdtFeePercentage",
          "type": "uint8"
        },
        {
          "internalType": "uint8",
          "name": "_oktFeePercentage",
          "type": "uint8"
        },
        {
          "internalType": "uint8",
          "name": "_vaultFeePercentage",
          "type": "uint8"
        }
      ],
      "name": "setFees",
      "outputs": [],
      "stateMutability": "nonpayable",
      "type": "function"
    },
    {
      "inputs": [
        {
          "internalType": "address",
          "name": "_operator",
          "type": "address"
        }
      ],
      "name": "setOperator",
      "outputs": [],
      "stateMutability": "nonpayable",
      "type": "function"
    },
    {
      "inputs": [
        {
          "internalType": "address",
          "name": "_vault",
          "type": "address"
        }
      ],
      "name": "setVault",
      "outputs": [],
      "stateMutability": "nonpayable",
      "type": "function"
    },
    {
      "inputs": [
        {
          "internalType": "bool",
          "name": "_vaultCollectEnabled",
          "type": "bool"
        }
      ],
      "name": "setVaultCollectEnabled",
      "outputs": [],
      "stateMutability": "nonpayable",
      "type": "function"
    },
    {
      "inputs": [
        {
          "internalType": "bool",
          "name": "_vaultSwapEnabled",
          "type": "bool"
        }
      ],
      "name": "setVaultSwapEnabled",
      "outputs": [],
      "stateMutability": "nonpayable",
      "type": "function"
    },
    {
      "inputs": [
        {
          "internalType": "bytes4",
          "name": "interfaceId",
          "type": "bytes4"
        }
      ],
      "name": "supportsInterface",
      "outputs": [
        {
          "internalType": "bool",
          "name": "",
          "type": "bool"
        }
      ],
      "stateMutability": "view",
      "type": "function"
    },
    {
      "inputs": [],
      "name": "symbol",
      "outputs": [
        {
          "internalType": "string",
          "name": "",
          "type": "string"
        }
      ],
      "stateMutability": "view",
      "type": "function"
    },
    {
      "inputs": [
        {
          "internalType": "uint256",
          "name": "index",
          "type": "uint256"
        }
      ],
      "name": "tokenByIndex",
      "outputs": [
        {
          "internalType": "uint256",
          "name": "",
          "type": "uint256"
        }
      ],
      "stateMutability": "view",
      "type": "function"
    },
    {
      "inputs": [
        {
          "internalType": "address",
          "name": "owner",
          "type": "address"
        },
        {
          "internalType": "uint256",
          "name": "index",
          "type": "uint256"
        }
      ],
      "name": "tokenOfOwnerByIndex",
      "outputs": [
        {
          "internalType": "uint256",
          "name": "",
          "type": "uint256"
        }
      ],
      "stateMutability": "view",
      "type": "function"
    },
    {
      "inputs": [
        {
          "internalType": "uint256",
          "name": "tokenId",
          "type": "uint256"
        }
      ],
      "name": "tokenURI",
      "outputs": [
        {
          "internalType": "string",
          "name": "",
          "type": "string"
        }
      ],
      "stateMutability": "view",
      "type": "function"
    },
    {
      "inputs": [],
      "name": "totalSupply",
      "outputs": [
        {
          "internalType": "uint256",
          "name": "",
          "type": "uint256"
        }
      ],
      "stateMutability": "view",
      "type": "function"
    },
    {
      "inputs": [
        {
          "internalType": "address",
          "name": "from",
          "type": "address"
        },
        {
          "internalType": "address",
          "name": "to",
          "type": "address"
        },
        {
          "internalType": "uint256",
          "name": "tokenId",
          "type": "uint256"
        }
      ],
      "name": "transferFrom",
      "outputs": [],
      "stateMutability": "nonpayable",
      "type": "function"
    },
    {
      "inputs": [
        {
          "internalType": "address",
          "name": "newOwner",
          "type": "address"
        }
      ],
      "name": "transferOwnership",
      "outputs": [],
      "stateMutability": "nonpayable",
      "type": "function"
    },
    {
      "inputs": [],
      "name": "vault",
      "outputs": [
        {
          "internalType": "address",
          "name": "",
          "type": "address"
        }
      ],
      "stateMutability": "view",
      "type": "function"
    },
    {
      "inputs": [
        {
          "internalType": "address",
          "name": "account_",
          "type": "address"
        },
        {
          "internalType": "uint256",
          "name": "tokenId_",
          "type": "uint256"
        },
        {
          "internalType": "uint256",
          "name": "amount_",
          "type": "uint256"
        }
      ],
      "name": "withdrawCredits",
      "outputs": [],
      "stateMutability": "nonpayable",
      "type": "function"
    },
    {
      "stateMutability": "payable",
      "type": "receive"
    }
  ],
  "bytecode": "0x608060405234801561001057600080fd5b50615c8680620000216000396000f3fe6080604052600436106101fd5760003560e01c8063715018a61161010d578063b88d4fde116100a0578063f2fde38b1161006f578063f2fde38b14610793578063f6794fdb146107bc578063fa1cc660146107e5578063fbfa77cf1461080e578063fc720f70146108395761023d565b8063b88d4fde146106c7578063c87b56dd146106f0578063dcb605061461072d578063e985e9c5146107565761023d565b8063a22cb465116100dc578063a22cb46514610623578063a6b524cd1461064c578063aa188e2f14610675578063b3ab15fb1461069e5761023d565b8063715018a61461058d5780638da5cb5b146105a457806395d89b41146105cf5780639be65a60146105fa5761023d565b80633618f6551161019057806355f804b31161015f57806355f804b314610496578063570ca735146104bf5780636352211e146104ea5780636817031b1461052757806370a08231146105505761023d565b80633618f655146103ca57806342842e0e146104075780634f1a3847146104305780634f6ccce7146104595761023d565b806316160b60116101cc57806316160b601461031057806318160ddd1461033957806323b872dd146103645780632f745c591461038d5761023d565b806301ffc9a71461024257806306fdde031461027f578063081812fc146102aa578063095ea7b3146102e75761023d565b3661023d576040517f08c379a0000000000000000000000000000000000000000000000000000000008152600401610234906144b5565b60405180910390fd5b600080fd5b34801561024e57600080fd5b5061026960048036038101906102649190614541565b610862565b6040516102769190614589565b60405180910390f35b34801561028b57600080fd5b506102946108dc565b6040516102a19190614623565b60405180910390f35b3480156102b657600080fd5b506102d160048036038101906102cc919061467b565b61097d565b6040516102de91906146e9565b60405180910390f35b3480156102f357600080fd5b5061030e60048036038101906103099190614730565b610999565b005b34801561031c57600080fd5b50610337600480360381019061033291906147df565b6109af565b005b34801561034557600080fd5b5061034e611087565b60405161035b9190614869565b60405180910390f35b34801561037057600080fd5b5061038b60048036038101906103869190614884565b6110a2565b005b34801561039957600080fd5b506103b460048036038101906103af9190614730565b6111a4565b6040516103c19190614869565b60405180910390f35b3480156103d657600080fd5b506103f160048036038101906103ec919061467b565b61125b565b6040516103fe9190614869565b60405180910390f35b34801561041357600080fd5b5061042e60048036038101906104299190614884565b61152d565b005b34801561043c57600080fd5b5061045760048036038101906104529190614903565b61154d565b005b34801561046557600080fd5b50610480600480360381019061047b919061467b565b611572565b60405161048d9190614869565b60405180910390f35b3480156104a257600080fd5b506104bd60048036038101906104b89190614a65565b6115f6565b005b3480156104cb57600080fd5b506104d461166a565b6040516104e191906146e9565b60405180910390f35b3480156104f657600080fd5b50610511600480360381019061050c919061467b565b611690565b60405161051e91906146e9565b60405180910390f35b34801561053357600080fd5b5061054e60048036038101906105499190614aae565b6116a2565b005b34801561055c57600080fd5b5061057760048036038101906105729190614aae565b61175d565b6040516105849190614869565b60405180910390f35b34801561059957600080fd5b506105a2611826565b005b3480156105b057600080fd5b506105b961183a565b6040516105c691906146e9565b60405180910390f35b3480156105db57600080fd5b506105e4611872565b6040516105f19190614623565b60405180910390f35b34801561060657600080fd5b50610621600480360381019061061c9190614aae565b611913565b005b34801561062f57600080fd5b5061064a60048036038101906106459190614adb565b6119c2565b005b34801561065857600080fd5b50610673600480360381019061066e9190614903565b6119d8565b005b34801561068157600080fd5b5061069c600480360381019061069791906147df565b6119fd565b005b3480156106aa57600080fd5b506106c560048036038101906106c09190614aae565b612029565b005b3480156106d357600080fd5b506106ee60048036038101906106e99190614bbc565b6120e4565b005b3480156106fc57600080fd5b506107176004803603810190610712919061467b565b612101565b6040516107249190614623565b60405180910390f35b34801561073957600080fd5b50610754600480360381019061074f9190614c3f565b61216a565b005b34801561076257600080fd5b5061077d60048036038101906107789190614c92565b6123f0565b60405161078a9190614589565b60405180910390f35b34801561079f57600080fd5b506107ba60048036038101906107b59190614aae565b612492565b005b3480156107c857600080fd5b506107e360048036038101906107de9190614cd2565b612518565b005b3480156107f157600080fd5b5061080c60048036038101906108079190614d25565b612575565b005b34801561081a57600080fd5b50610823612828565b60405161083091906146e9565b60405180910390f35b34801561084557600080fd5b50610860600480360381019061085b9190614903565b61284e565b005b60007f780e9d63000000000000000000000000000000000000000000000000000000007bffffffffffffffffffffffffffffffffffffffffffffffffffffffff1916827bffffffffffffffffffffffffffffffffffffffffffffffffffffffff191614806108d557506108d482612873565b5b9050919050565b606060006108e8612955565b90508060000180546108f990614e4a565b80601f016020809104026020016040519081016040528092919081815260200182805461092590614e4a565b80156109725780601f1061094757610100808354040283529160200191610972565b820191906000526020600020905b81548152906001019060200180831161095557829003601f168201915b505050505091505090565b60006109888261297d565b5061099282612a05565b9050919050565b6109ab82826109a6612a50565b612a58565b5050565b84600260009054906101000a900473ffffffffffffffffffffffffffffffffffffffff1673ffffffffffffffffffffffffffffffffffffffff166370a08231336040518263ffffffff1660e01b8152600401610a0b91906146e9565b602060405180830381865afa158015610a28573d6000803e3d6000fd5b505050506040513d601f19601f82011682018060405250810190610a4c9190614e90565b1015610a8d576040517f08c379a0000000000000000000000000000000000000000000000000000000008152600401610a8490614f09565b60405180910390fd5b600260009054906101000a900473ffffffffffffffffffffffffffffffffffffffff1673ffffffffffffffffffffffffffffffffffffffff1663d505accf333088888888886040518863ffffffff1660e01b8152600401610af49796959493929190614f47565b600060405180830381600087803b158015610b0e57600080fd5b505af1158015610b22573d6000803e3d6000fd5b50505050610b75333087600260009054906101000a900473ffffffffffffffffffffffffffffffffffffffff1673ffffffffffffffffffffffffffffffffffffffff16612a6a909392919063ffffffff16565b6000600460149054906101000a900460ff1615610c58576064600060029054906101000a900460ff1660ff1687610bac9190614fe5565b610bb69190615056565b9050600560009054906101000a900473ffffffffffffffffffffffffffffffffffffffff1673ffffffffffffffffffffffffffffffffffffffff166336a9838c826040518263ffffffff1660e01b8152600401610c139190614869565b6020604051808303816000875af1158015610c32573d6000803e3d6000fd5b505050506040513d601f19601f82011682018060405250810190610c56919061509c565b505b6000600460159054906101000a900460ff1615610f8157610cc9600260009054906101000a900473ffffffffffffffffffffffffffffffffffffffff16600460009054906101000a900473ffffffffffffffffffffffffffffffffffffffff16848a610cc491906150c9565b612aec565b600080600267ffffffffffffffff811115610ce757610ce661493a565b5b604051908082528060200260200182016040528015610d155781602001602082028036833780820191505090505b509050600260009054906101000a900473ffffffffffffffffffffffffffffffffffffffff1681600081518110610d4f57610d4e6150fd565b5b602002602001019073ffffffffffffffffffffffffffffffffffffffff16908173ffffffffffffffffffffffffffffffffffffffff1681525050600360009054906101000a900473ffffffffffffffffffffffffffffffffffffffff1681600181518110610dc057610dbf6150fd565b5b602002602001019073ffffffffffffffffffffffffffffffffffffffff16908173ffffffffffffffffffffffffffffffffffffffff16815250506000600460009054906101000a900473ffffffffffffffffffffffffffffffffffffffff1673ffffffffffffffffffffffffffffffffffffffff166338ed1739868c610e4691906150c9565b85853061012c42610e57919061512c565b6040518663ffffffff1660e01b8152600401610e7795949392919061521e565b6000604051808303816000875af1158015610e96573d6000803e3d6000fd5b505050506040513d6000823e3d601f19601f82011682018060405250810190610ebf9190615340565b60018351610ecd91906150c9565b81518110610ede57610edd6150fd565b5b6020026020010151905060006064600060019054906101000a900460ff1660ff1683610f0a9190614fe5565b610f149190615056565b9050610f6a610f2161183a565b82600360009054906101000a900473ffffffffffffffffffffffffffffffffffffffff1673ffffffffffffffffffffffffffffffffffffffff16612c419092919063ffffffff16565b8082610f7691906150c9565b94505050505061101e565b60006064600060019054906101000a900460ff1660ff1689610fa39190614fe5565b610fad9190615056565b9050611003610fba61183a565b82600260009054906101000a900473ffffffffffffffffffffffffffffffffffffffff1673ffffffffffffffffffffffffffffffffffffffff16612c419092919063ffffffff16565b828161100f919061512c565b8861101a91906150c9565b9150505b600061102933612cc0565b90503373ffffffffffffffffffffffffffffffffffffffff167f3460711374ee66794f337d04a29f629b5ed836942267d1d32340e4265d8c8b86828a8560405161107593929190615389565b60405180910390a25050505050505050565b600080611092612d16565b9050806002018054905091505090565b600073ffffffffffffffffffffffffffffffffffffffff168273ffffffffffffffffffffffffffffffffffffffff16036111145760006040517f64a0ae9200000000000000000000000000000000000000000000000000000000815260040161110b91906146e9565b60405180910390fd5b60006111288383611123612a50565b612d3e565b90508373ffffffffffffffffffffffffffffffffffffffff168173ffffffffffffffffffffffffffffffffffffffff161461119e578382826040517f64283d7b000000000000000000000000000000000000000000000000000000008152600401611195939291906153c0565b60405180910390fd5b50505050565b6000806111af612d16565b90506111ba8461175d565b83106111ff5783836040517fa57d13dc0000000000000000000000000000000000000000000000000000000081526004016111f69291906153f7565b60405180910390fd5b8060000160008573ffffffffffffffffffffffffffffffffffffffff1673ffffffffffffffffffffffffffffffffffffffff16815260200190815260200160002060008481526020019081526020016000205491505092915050565b6000806064600060029054906101000a900460ff1660ff168461127e9190614fe5565b6112889190615056565b9050600460159054906101000a900460ff16156114e0576000600267ffffffffffffffff8111156112bc576112bb61493a565b5b6040519080825280602002602001820160405280156112ea5781602001602082028036833780820191505090505b509050600260009054906101000a900473ffffffffffffffffffffffffffffffffffffffff1681600081518110611324576113236150fd565b5b602002602001019073ffffffffffffffffffffffffffffffffffffffff16908173ffffffffffffffffffffffffffffffffffffffff1681525050600360009054906101000a900473ffffffffffffffffffffffffffffffffffffffff1681600181518110611395576113946150fd565b5b602002602001019073ffffffffffffffffffffffffffffffffffffffff16908173ffffffffffffffffffffffffffffffffffffffff16815250506000600460009054906101000a900473ffffffffffffffffffffffffffffffffffffffff1673ffffffffffffffffffffffffffffffffffffffff1663d06ca61f848761141b91906150c9565b846040518363ffffffff1660e01b8152600401611439929190615420565b600060405180830381865afa158015611456573d6000803e3d6000fd5b505050506040513d6000823e3d601f19601f8201168201806040525081019061147f9190615340565b600181518110611492576114916150fd565b5b6020026020010151905060006064600060019054906101000a900460ff1660ff16836114be9190614fe5565b6114c89190615056565b905080826114d691906150c9565b9450505050611527565b6000606460008054906101000a900460ff1660ff16856115009190614fe5565b61150a9190615056565b90508181611518919061512c565b8461152391906150c9565b9250505b50919050565b611548838383604051806020016040528060008152506120e4565b505050565b611555612e5b565b80600460156101000a81548160ff02191690831515021790555050565b60008061157d612d16565b9050611587611087565b83106115cd576000836040517fa57d13dc0000000000000000000000000000000000000000000000000000000081526004016115c49291906153f7565b60405180910390fd5b8060020183815481106115e3576115e26150fd565b5b9060005260206000200154915050919050565b6115fe612e5b565b8060405161160c919061548c565b60405180910390206001604051611623919061553b565b60405180910390207f309b29ded109b9e28fb9885757b3e0096eb75c51d23aa4635d68bcd569f6adc160405160405180910390a3806001908161166691906156e9565b5050565b600060039054906101000a900473ffffffffffffffffffffffffffffffffffffffff1681565b600061169b8261297d565b9050919050565b6116aa612e5b565b600073ffffffffffffffffffffffffffffffffffffffff168173ffffffffffffffffffffffffffffffffffffffff1603611719576040517f08c379a000000000000000000000000000000000000000000000000000000000815260040161171090615807565b60405180910390fd5b80600560006101000a81548173ffffffffffffffffffffffffffffffffffffffff021916908373ffffffffffffffffffffffffffffffffffffffff16021790555050565b600080611768612955565b9050600073ffffffffffffffffffffffffffffffffffffffff168373ffffffffffffffffffffffffffffffffffffffff16036117dc5760006040517f89c62b640000000000000000000000000000000000000000000000000000000081526004016117d391906146e9565b60405180910390fd5b8060030160008473ffffffffffffffffffffffffffffffffffffffff1673ffffffffffffffffffffffffffffffffffffffff16815260200190815260200160002054915050919050565b61182e612e5b565b6118386000612ee2565b565b600080611845612fb9565b90508060000160009054906101000a900473ffffffffffffffffffffffffffffffffffffffff1691505090565b6060600061187e612955565b905080600101805461188f90614e4a565b80601f01602080910402602001604051908101604052809291908181526020018280546118bb90614e4a565b80156119085780601f106118dd57610100808354040283529160200191611908565b820191906000526020600020905b8154815290600101906020018083116118eb57829003601f168201915b505050505091505090565b61191b612e5b565b6119bf338273ffffffffffffffffffffffffffffffffffffffff166370a08231306040518263ffffffff1660e01b815260040161195891906146e9565b602060405180830381865afa158015611975573d6000803e3d6000fd5b505050506040513d601f19601f820116820180604052508101906119999190614e90565b8373ffffffffffffffffffffffffffffffffffffffff16612c419092919063ffffffff16565b50565b6119d46119cd612a50565b8383612fe1565b5050565b6119e0612e5b565b80600460166101000a81548160ff02191690831515021790555050565b84600360009054906101000a900473ffffffffffffffffffffffffffffffffffffffff1673ffffffffffffffffffffffffffffffffffffffff166370a08231336040518263ffffffff1660e01b8152600401611a5991906146e9565b602060405180830381865afa158015611a76573d6000803e3d6000fd5b505050506040513d601f19601f82011682018060405250810190611a9a9190614e90565b1015611adb576040517f08c379a0000000000000000000000000000000000000000000000000000000008152600401611ad290614f09565b60405180910390fd5b600360009054906101000a900473ffffffffffffffffffffffffffffffffffffffff1673ffffffffffffffffffffffffffffffffffffffff1663d505accf333088888888886040518863ffffffff1660e01b8152600401611b429796959493929190614f47565b600060405180830381600087803b158015611b5c57600080fd5b505af1158015611b70573d6000803e3d6000fd5b50505050611bc3333087600360009054906101000a900473ffffffffffffffffffffffffffffffffffffffff1673ffffffffffffffffffffffffffffffffffffffff16612a6a909392919063ffffffff16565b6000606460008054906101000a900460ff1660ff1687611be39190614fe5565b611bed9190615056565b9050611c43611bfa61183a565b82600360009054906101000a900473ffffffffffffffffffffffffffffffffffffffff1673ffffffffffffffffffffffffffffffffffffffff16612c419092919063ffffffff16565b6000600460149054906101000a900460ff168015611c6d5750600460169054906101000a900460ff165b15611fa4576064600060029054906101000a900460ff1660ff1688611c929190614fe5565b611c9c9190615056565b9050611ced600360009054906101000a900473ffffffffffffffffffffffffffffffffffffffff16600460009054906101000a900473ffffffffffffffffffffffffffffffffffffffff1683612aec565b600080600267ffffffffffffffff811115611d0b57611d0a61493a565b5b604051908082528060200260200182016040528015611d395781602001602082028036833780820191505090505b509050600360009054906101000a900473ffffffffffffffffffffffffffffffffffffffff1681600081518110611d7357611d726150fd565b5b602002602001019073ffffffffffffffffffffffffffffffffffffffff16908173ffffffffffffffffffffffffffffffffffffffff1681525050600260009054906101000a900473ffffffffffffffffffffffffffffffffffffffff1681600181518110611de457611de36150fd565b5b602002602001019073ffffffffffffffffffffffffffffffffffffffff16908173ffffffffffffffffffffffffffffffffffffffff16815250506000600460009054906101000a900473ffffffffffffffffffffffffffffffffffffffff1673ffffffffffffffffffffffffffffffffffffffff166338ed17398585853061012c42611e70919061512c565b6040518663ffffffff1660e01b8152600401611e9095949392919061521e565b6000604051808303816000875af1158015611eaf573d6000803e3d6000fd5b505050506040513d6000823e3d601f19601f82011682018060405250810190611ed89190615340565b60018351611ee691906150c9565b81518110611ef757611ef66150fd565b5b60200260200101519050600560009054906101000a900473ffffffffffffffffffffffffffffffffffffffff1673ffffffffffffffffffffffffffffffffffffffff166336a9838c826040518263ffffffff1660e01b8152600401611f5c9190614869565b6020604051808303816000875af1158015611f7b573d6000803e3d6000fd5b505050506040513d601f19601f82011682018060405250810190611f9f919061509c565b505050505b60008183611fb2919061512c565b88611fbd91906150c9565b90506000611fca33612cc0565b90503373ffffffffffffffffffffffffffffffffffffffff167fc17093183e53a8bbe834559ed07df1b944b78913122dbfdc578325c626e48a20828b8560405161201693929190615389565b60405180910390a2505050505050505050565b612031612e5b565b600073ffffffffffffffffffffffffffffffffffffffff168173ffffffffffffffffffffffffffffffffffffffff16036120a0576040517f08c379a000000000000000000000000000000000000000000000000000000000815260040161209790615899565b60405180910390fd5b80600060036101000a81548173ffffffffffffffffffffffffffffffffffffffff021916908373ffffffffffffffffffffffffffffffffffffffff16021790555050565b6120ef8484846110a2565b6120fb8484848461315f565b50505050565b606061210c8261297d565b506000612117613316565b905060008151116121375760405180602001604052806000815250612162565b80612141846133a8565b6040516020016121529291906158b9565b6040516020818303038152906040525b915050919050565b600060039054906101000a900473ffffffffffffffffffffffffffffffffffffffff1673ffffffffffffffffffffffffffffffffffffffff163373ffffffffffffffffffffffffffffffffffffffff16146121fa576040517f08c379a00000000000000000000000000000000000000000000000000000000081526004016121f190615929565b60405180910390fd5b8273ffffffffffffffffffffffffffffffffffffffff1661221a83611690565b73ffffffffffffffffffffffffffffffffffffffff1614612270576040517f08c379a000000000000000000000000000000000000000000000000000000000815260040161226790615995565b60405180910390fd5b600360009054906101000a900473ffffffffffffffffffffffffffffffffffffffff1673ffffffffffffffffffffffffffffffffffffffff166370a08231306040518263ffffffff1660e01b81526004016122cb91906146e9565b602060405180830381865afa1580156122e8573d6000803e3d6000fd5b505050506040513d601f19601f8201168201806040525081019061230c9190614e90565b81111561234e576040517f08c379a000000000000000000000000000000000000000000000000000000000815260040161234590614f09565b60405180910390fd5b61239b8382600360009054906101000a900473ffffffffffffffffffffffffffffffffffffffff1673ffffffffffffffffffffffffffffffffffffffff16612c419092919063ffffffff16565b8273ffffffffffffffffffffffffffffffffffffffff167f92ccf450a286a957af52509bc1c9939d1a6a481783e142e41e2499f0bb66ebc683836040516123e39291906159b5565b60405180910390a2505050565b6000806123fb612955565b90508060050160008573ffffffffffffffffffffffffffffffffffffffff1673ffffffffffffffffffffffffffffffffffffffff16815260200190815260200160002060008473ffffffffffffffffffffffffffffffffffffffff1673ffffffffffffffffffffffffffffffffffffffff16815260200190815260200160002060009054906101000a900460ff1691505092915050565b61249a612e5b565b600073ffffffffffffffffffffffffffffffffffffffff168173ffffffffffffffffffffffffffffffffffffffff160361250c5760006040517f1e4fbdf700000000000000000000000000000000000000000000000000000000815260040161250391906146e9565b60405180910390fd5b61251581612ee2565b50565b612520612e5b565b826000806101000a81548160ff021916908360ff16021790555081600060016101000a81548160ff021916908360ff16021790555080600060026101000a81548160ff021916908360ff160217905550505050565b600061257f613476565b905060008160000160089054906101000a900460ff1615905060008260000160009054906101000a900467ffffffffffffffff1690506000808267ffffffffffffffff161480156125cd5750825b9050600060018367ffffffffffffffff16148015612602575060003073ffffffffffffffffffffffffffffffffffffffff163b145b905081158015612610575080155b15612647576040517ff92ee8a900000000000000000000000000000000000000000000000000000000815260040160405180910390fd5b60018560000160006101000a81548167ffffffffffffffff021916908367ffffffffffffffff16021790555083156126975760018560000160086101000a81548160ff0219169083151502179055505b6126a18c8c61349e565b6126aa336134b4565b89600060036101000a81548173ffffffffffffffffffffffffffffffffffffffff021916908373ffffffffffffffffffffffffffffffffffffffff16021790555088600190816126fa91906156e9565b5087600260006101000a81548173ffffffffffffffffffffffffffffffffffffffff021916908373ffffffffffffffffffffffffffffffffffffffff16021790555086600360006101000a81548173ffffffffffffffffffffffffffffffffffffffff021916908373ffffffffffffffffffffffffffffffffffffffff16021790555085600460006101000a81548173ffffffffffffffffffffffffffffffffffffffff021916908373ffffffffffffffffffffffffffffffffffffffff160217905550831561281a5760008560000160086101000a81548160ff0219169083151502179055507fc7f505b2f371ae2175ee4913f4499e1f2633a7b5936321eed1cdaeb6115181d260016040516128119190615a2d565b60405180910390a15b505050505050505050505050565b600560009054906101000a900473ffffffffffffffffffffffffffffffffffffffff1681565b612856612e5b565b80600460146101000a81548160ff02191690831515021790555050565b60007f80ac58cd000000000000000000000000000000000000000000000000000000007bffffffffffffffffffffffffffffffffffffffffffffffffffffffff1916827bffffffffffffffffffffffffffffffffffffffffffffffffffffffff1916148061293e57507f5b5e139f000000000000000000000000000000000000000000000000000000007bffffffffffffffffffffffffffffffffffffffffffffffffffffffff1916827bffffffffffffffffffffffffffffffffffffffffffffffffffffffff1916145b8061294e575061294d826134c8565b5b9050919050565b60007f80bb2b638cc20bc4d0a60d66940f3ab4a00c1d7b313497ca82fb0b4ab0079300905090565b60008061298983613532565b9050600073ffffffffffffffffffffffffffffffffffffffff168173ffffffffffffffffffffffffffffffffffffffff16036129fc57826040517f7e2732890000000000000000000000000000000000000000000000000000000081526004016129f39190614869565b60405180910390fd5b80915050919050565b600080612a10612955565b905080600401600084815260200190815260200160002060009054906101000a900473ffffffffffffffffffffffffffffffffffffffff16915050919050565b600033905090565b612a65838383600161357d565b505050565b612ae6848573ffffffffffffffffffffffffffffffffffffffff166323b872dd868686604051602401612a9f93929190615a48565b604051602081830303815290604052915060e01b6020820180517bffffffffffffffffffffffffffffffffffffffffffffffffffffffff8381831617835250505050613751565b50505050565b6000808473ffffffffffffffffffffffffffffffffffffffff1663095ea7b360e01b8585604051602401612b219291906153f7565b604051602081830303815290604052907bffffffffffffffffffffffffffffffffffffffffffffffffffffffff19166020820180517bffffffffffffffffffffffffffffffffffffffffffffffffffffffff8381831617835250505050604051612b8b9190615ac6565b6000604051808303816000865af19150503d8060008114612bc8576040519150601f19603f3d011682016040523d82523d6000602084013e612bcd565b606091505b5091509150818015612bfb5750600081511480612bfa575080806020019051810190612bf9919061509c565b5b5b612c3a576040517f08c379a0000000000000000000000000000000000000000000000000000000008152600401612c3190615b29565b60405180910390fd5b5050505050565b612cbb838473ffffffffffffffffffffffffffffffffffffffff1663a9059cbb8585604051602401612c749291906153f7565b604051602081830303815290604052915060e01b6020820180517bffffffffffffffffffffffffffffffffffffffffffffffffffffffff8381831617835250505050613751565b505050565b600080612ccc8361175d565b90506000811115612ce957612ce28360006111a4565b9150612d10565b60006001612cf5611087565b612cff919061512c565b9050612d0b84826137e8565b809250505b50919050565b60007f645e039705490088daad89bae25049a34f4a9072d398537b1ab2425f24cbed00905090565b600080612d4c858585613806565b9050600073ffffffffffffffffffffffffffffffffffffffff168173ffffffffffffffffffffffffffffffffffffffff1603612d9057612d8b84613a33565b612dcf565b8473ffffffffffffffffffffffffffffffffffffffff168173ffffffffffffffffffffffffffffffffffffffff1614612dce57612dcd8185613a8f565b5b5b600073ffffffffffffffffffffffffffffffffffffffff168573ffffffffffffffffffffffffffffffffffffffff1603612e1157612e0c84613c09565b612e50565b8473ffffffffffffffffffffffffffffffffffffffff168173ffffffffffffffffffffffffffffffffffffffff1614612e4f57612e4e8585613cf5565b5b5b809150509392505050565b612e63612a50565b73ffffffffffffffffffffffffffffffffffffffff16612e8161183a565b73ffffffffffffffffffffffffffffffffffffffff1614612ee057612ea4612a50565b6040517f118cdaa7000000000000000000000000000000000000000000000000000000008152600401612ed791906146e9565b60405180910390fd5b565b6000612eec612fb9565b905060008160000160009054906101000a900473ffffffffffffffffffffffffffffffffffffffff169050828260000160006101000a81548173ffffffffffffffffffffffffffffffffffffffff021916908373ffffffffffffffffffffffffffffffffffffffff1602179055508273ffffffffffffffffffffffffffffffffffffffff168173ffffffffffffffffffffffffffffffffffffffff167f8be0079c531659141344cd1fd0a4f28419497f9722a3daafe3b4186f6b6457e060405160405180910390a3505050565b60007f9016d09d72d40fdae2fd8ceac6b6234c7706214fd39c1cd1e609a0528c199300905090565b6000612feb612955565b9050600073ffffffffffffffffffffffffffffffffffffffff168373ffffffffffffffffffffffffffffffffffffffff160361305e57826040517f5b08ba1800000000000000000000000000000000000000000000000000000000815260040161305591906146e9565b60405180910390fd5b818160050160008673ffffffffffffffffffffffffffffffffffffffff1673ffffffffffffffffffffffffffffffffffffffff16815260200190815260200160002060008573ffffffffffffffffffffffffffffffffffffffff1673ffffffffffffffffffffffffffffffffffffffff16815260200190815260200160002060006101000a81548160ff0219169083151502179055508273ffffffffffffffffffffffffffffffffffffffff168473ffffffffffffffffffffffffffffffffffffffff167f17307eab39ab6107e8899845ad3d59bd9653f200f220920489ca2b5937696c31846040516131519190614589565b60405180910390a350505050565b60008373ffffffffffffffffffffffffffffffffffffffff163b1115613310578273ffffffffffffffffffffffffffffffffffffffff1663150b7a026131a3612a50565b8685856040518563ffffffff1660e01b81526004016131c59493929190615b93565b6020604051808303816000875af192505050801561320157506040513d601f19601f820116820180604052508101906131fe9190615bf4565b60015b613285573d8060008114613231576040519150601f19603f3d011682016040523d82523d6000602084013e613236565b606091505b50600081510361327d57836040517f64a0ae9200000000000000000000000000000000000000000000000000000000815260040161327491906146e9565b60405180910390fd5b805181602001fd5b63150b7a0260e01b7bffffffffffffffffffffffffffffffffffffffffffffffffffffffff1916817bffffffffffffffffffffffffffffffffffffffffffffffffffffffff19161461330e57836040517f64a0ae9200000000000000000000000000000000000000000000000000000000815260040161330591906146e9565b60405180910390fd5b505b50505050565b60606001805461332590614e4a565b80601f016020809104026020016040519081016040528092919081815260200182805461335190614e4a565b801561339e5780601f106133735761010080835404028352916020019161339e565b820191906000526020600020905b81548152906001019060200180831161338157829003601f168201915b5050505050905090565b6060600060016133b784613d91565b01905060008167ffffffffffffffff8111156133d6576133d561493a565b5b6040519080825280601f01601f1916602001820160405280156134085781602001600182028036833780820191505090505b509050600082602001820190505b60011561346b578080600190039150507f3031323334353637383961626364656600000000000000000000000000000000600a86061a8153600a858161345f5761345e615027565b5b04945060008503613416575b819350505050919050565b60007ff0c57e16840df040f15088dc2f81fe391c3923bec73e23a9662efc9c229c6a00905090565b6134a6613ee4565b6134b08282613f24565b5050565b6134bc613ee4565b6134c581613f61565b50565b60007f01ffc9a7000000000000000000000000000000000000000000000000000000007bffffffffffffffffffffffffffffffffffffffffffffffffffffffff1916827bffffffffffffffffffffffffffffffffffffffffffffffffffffffff1916149050919050565b60008061353d612955565b905080600201600084815260200190815260200160002060009054906101000a900473ffffffffffffffffffffffffffffffffffffffff16915050919050565b6000613587612955565b905081806135c25750600073ffffffffffffffffffffffffffffffffffffffff168373ffffffffffffffffffffffffffffffffffffffff1614155b156136f65760006135d28561297d565b9050600073ffffffffffffffffffffffffffffffffffffffff168473ffffffffffffffffffffffffffffffffffffffff161415801561363d57508373ffffffffffffffffffffffffffffffffffffffff168173ffffffffffffffffffffffffffffffffffffffff1614155b8015613650575061364e81856123f0565b155b1561369257836040517fa9fbf51f00000000000000000000000000000000000000000000000000000000815260040161368991906146e9565b60405180910390fd5b82156136f457848673ffffffffffffffffffffffffffffffffffffffff168273ffffffffffffffffffffffffffffffffffffffff167f8c5be1e5ebec7d5bd14f71427d1e84f3dd0314c0f7b2291e5b200ac8c7c3b92560405160405180910390a45b505b8481600401600086815260200190815260200160002060006101000a81548173ffffffffffffffffffffffffffffffffffffffff021916908373ffffffffffffffffffffffffffffffffffffffff1602179055505050505050565b600061377c828473ffffffffffffffffffffffffffffffffffffffff16613fe790919063ffffffff16565b905060008151141580156137a157508080602001905181019061379f919061509c565b155b156137e357826040517f5274afe70000000000000000000000000000000000000000000000000000000081526004016137da91906146e9565b60405180910390fd5b505050565b613802828260405180602001604052806000815250613ffd565b5050565b600080613811612955565b9050600061381e85613532565b9050600073ffffffffffffffffffffffffffffffffffffffff168473ffffffffffffffffffffffffffffffffffffffff16146138605761385f818587614019565b5b600073ffffffffffffffffffffffffffffffffffffffff168173ffffffffffffffffffffffffffffffffffffffff16146138f3576138a260008660008061357d565b60018260030160008373ffffffffffffffffffffffffffffffffffffffff1673ffffffffffffffffffffffffffffffffffffffff168152602001908152602001600020600082825403925050819055505b600073ffffffffffffffffffffffffffffffffffffffff168673ffffffffffffffffffffffffffffffffffffffff16146139785760018260030160008873ffffffffffffffffffffffffffffffffffffffff1673ffffffffffffffffffffffffffffffffffffffff168152602001908152602001600020600082825401925050819055505b8582600201600087815260200190815260200160002060006101000a81548173ffffffffffffffffffffffffffffffffffffffff021916908373ffffffffffffffffffffffffffffffffffffffff160217905550848673ffffffffffffffffffffffffffffffffffffffff168273ffffffffffffffffffffffffffffffffffffffff167fddf252ad1be2c89b69c2b068fc378daa952ba7f163c4a11628f55a4df523b3ef60405160405180910390a480925050509392505050565b6000613a3d612d16565b9050806002018054905081600301600084815260200190815260200160002081905550806002018290806001815401808255809150506001900390600052602060002001600090919091909150555050565b6000613a99612d16565b90506000613aa68461175d565b90506000826001016000858152602001908152602001600020549050818114613b935760008360000160008773ffffffffffffffffffffffffffffffffffffffff1673ffffffffffffffffffffffffffffffffffffffff1681526020019081526020016000206000848152602001908152602001600020549050808460000160008873ffffffffffffffffffffffffffffffffffffffff1673ffffffffffffffffffffffffffffffffffffffff1681526020019081526020016000206000848152602001908152602001600020819055508184600101600083815260200190815260200160002081905550505b826001016000858152602001908152602001600020600090558260000160008673ffffffffffffffffffffffffffffffffffffffff1673ffffffffffffffffffffffffffffffffffffffff1681526020019081526020016000206000838152602001908152602001600020600090555050505050565b6000613c13612d16565b9050600060018260020180549050613c2b91906150c9565b905060008260030160008581526020019081526020016000205490506000836002018381548110613c5f57613c5e6150fd565b5b9060005260206000200154905080846002018381548110613c8357613c826150fd565b5b906000526020600020018190555081846003016000838152602001908152602001600020819055508360030160008681526020019081526020016000206000905583600201805480613cd857613cd7615c21565b5b600190038181906000526020600020016000905590555050505050565b6000613cff612d16565b905060006001613d0e8561175d565b613d1891906150c9565b9050828260000160008673ffffffffffffffffffffffffffffffffffffffff1673ffffffffffffffffffffffffffffffffffffffff168152602001908152602001600020600083815260200190815260200160002081905550808260010160008581526020019081526020016000208190555050505050565b600080600090507a184f03e93ff9f4daa797ed6e38ed64bf6a1f0100000000000000008310613def577a184f03e93ff9f4daa797ed6e38ed64bf6a1f0100000000000000008381613de557613de4615027565b5b0492506040810190505b6d04ee2d6d415b85acef81000000008310613e2c576d04ee2d6d415b85acef81000000008381613e2257613e21615027565b5b0492506020810190505b662386f26fc100008310613e5b57662386f26fc100008381613e5157613e50615027565b5b0492506010810190505b6305f5e1008310613e84576305f5e1008381613e7a57613e79615027565b5b0492506008810190505b6127108310613ea9576127108381613e9f57613e9e615027565b5b0492506004810190505b60648310613ecc5760648381613ec257613ec1615027565b5b0492506002810190505b600a8310613edb576001810190505b80915050919050565b613eec6140dd565b613f22576040517fd7e6bcf800000000000000000000000000000000000000000000000000000000815260040160405180910390fd5b565b613f2c613ee4565b6000613f36612955565b905082816000019081613f4991906156e9565b5081816001019081613f5b91906156e9565b50505050565b613f69613ee4565b600073ffffffffffffffffffffffffffffffffffffffff168173ffffffffffffffffffffffffffffffffffffffff1603613fdb5760006040517f1e4fbdf7000000000000000000000000000000000000000000000000000000008152600401613fd291906146e9565b60405180910390fd5b613fe481612ee2565b50565b6060613ff5838360006140fd565b905092915050565b61400783836141ca565b614014600084848461315f565b505050565b6140248383836142c3565b6140d857600073ffffffffffffffffffffffffffffffffffffffff168373ffffffffffffffffffffffffffffffffffffffff160361409957806040517f7e2732890000000000000000000000000000000000000000000000000000000081526004016140909190614869565b60405180910390fd5b81816040517f177e802f0000000000000000000000000000000000000000000000000000000081526004016140cf9291906153f7565b60405180910390fd5b505050565b60006140e7613476565b60000160089054906101000a900460ff16905090565b60608147101561414457306040517fcd78605900000000000000000000000000000000000000000000000000000000815260040161413b91906146e9565b60405180910390fd5b6000808573ffffffffffffffffffffffffffffffffffffffff16848660405161416d9190615ac6565b60006040518083038185875af1925050503d80600081146141aa576040519150601f19603f3d011682016040523d82523d6000602084013e6141af565b606091505b50915091506141bf868383614384565b925050509392505050565b600073ffffffffffffffffffffffffffffffffffffffff168273ffffffffffffffffffffffffffffffffffffffff160361423c5760006040517f64a0ae9200000000000000000000000000000000000000000000000000000000815260040161423391906146e9565b60405180910390fd5b600061424a83836000612d3e565b9050600073ffffffffffffffffffffffffffffffffffffffff168173ffffffffffffffffffffffffffffffffffffffff16146142be5760006040517f73c6ac6e0000000000000000000000000000000000000000000000000000000081526004016142b591906146e9565b60405180910390fd5b505050565b60008073ffffffffffffffffffffffffffffffffffffffff168373ffffffffffffffffffffffffffffffffffffffff161415801561437b57508273ffffffffffffffffffffffffffffffffffffffff168473ffffffffffffffffffffffffffffffffffffffff16148061433c575061433b84846123f0565b5b8061437a57508273ffffffffffffffffffffffffffffffffffffffff1661436283612a05565b73ffffffffffffffffffffffffffffffffffffffff16145b5b90509392505050565b6060826143995761439482614413565b61440b565b600082511480156143c1575060008473ffffffffffffffffffffffffffffffffffffffff163b145b1561440357836040517f9996b3150000000000000000000000000000000000000000000000000000000081526004016143fa91906146e9565b60405180910390fd5b81905061440c565b5b9392505050565b6000815111156144265780518082602001fd5b6040517f1425ea4200000000000000000000000000000000000000000000000000000000815260040160405180910390fd5b600082825260208201905092915050565b7f4574686572206973206e6f7420616c6c6f776564000000000000000000000000600082015250565b600061449f601483614458565b91506144aa82614469565b602082019050919050565b600060208201905081810360008301526144ce81614492565b9050919050565b6000604051905090565b600080fd5b600080fd5b60007fffffffff0000000000000000000000000000000000000000000000000000000082169050919050565b61451e816144e9565b811461452957600080fd5b50565b60008135905061453b81614515565b92915050565b600060208284031215614557576145566144df565b5b60006145658482850161452c565b91505092915050565b60008115159050919050565b6145838161456e565b82525050565b600060208201905061459e600083018461457a565b92915050565b600081519050919050565b60005b838110156145cd5780820151818401526020810190506145b2565b60008484015250505050565b6000601f19601f8301169050919050565b60006145f5826145a4565b6145ff8185614458565b935061460f8185602086016145af565b614618816145d9565b840191505092915050565b6000602082019050818103600083015261463d81846145ea565b905092915050565b6000819050919050565b61465881614645565b811461466357600080fd5b50565b6000813590506146758161464f565b92915050565b600060208284031215614691576146906144df565b5b600061469f84828501614666565b91505092915050565b600073ffffffffffffffffffffffffffffffffffffffff82169050919050565b60006146d3826146a8565b9050919050565b6146e3816146c8565b82525050565b60006020820190506146fe60008301846146da565b92915050565b61470d816146c8565b811461471857600080fd5b50565b60008135905061472a81614704565b92915050565b60008060408385031215614747576147466144df565b5b60006147558582860161471b565b925050602061476685828601614666565b9150509250929050565b600060ff82169050919050565b61478681614770565b811461479157600080fd5b50565b6000813590506147a38161477d565b92915050565b6000819050919050565b6147bc816147a9565b81146147c757600080fd5b50565b6000813590506147d9816147b3565b92915050565b600080600080600060a086880312156147fb576147fa6144df565b5b600061480988828901614666565b955050602061481a88828901614666565b945050604061482b88828901614794565b935050606061483c888289016147ca565b925050608061484d888289016147ca565b9150509295509295909350565b61486381614645565b82525050565b600060208201905061487e600083018461485a565b92915050565b60008060006060848603121561489d5761489c6144df565b5b60006148ab8682870161471b565b93505060206148bc8682870161471b565b92505060406148cd86828701614666565b9150509250925092565b6148e08161456e565b81146148eb57600080fd5b50565b6000813590506148fd816148d7565b92915050565b600060208284031215614919576149186144df565b5b6000614927848285016148ee565b91505092915050565b600080fd5b600080fd5b7f4e487b7100000000000000000000000000000000000000000000000000000000600052604160045260246000fd5b614972826145d9565b810181811067ffffffffffffffff821117156149915761499061493a565b5b80604052505050565b60006149a46144d5565b90506149b08282614969565b919050565b600067ffffffffffffffff8211156149d0576149cf61493a565b5b6149d9826145d9565b9050602081019050919050565b82818337600083830152505050565b6000614a08614a03846149b5565b61499a565b905082815260208101848484011115614a2457614a23614935565b5b614a2f8482856149e6565b509392505050565b600082601f830112614a4c57614a4b614930565b5b8135614a5c8482602086016149f5565b91505092915050565b600060208284031215614a7b57614a7a6144df565b5b600082013567ffffffffffffffff811115614a9957614a986144e4565b5b614aa584828501614a37565b91505092915050565b600060208284031215614ac457614ac36144df565b5b6000614ad28482850161471b565b91505092915050565b60008060408385031215614af257614af16144df565b5b6000614b008582860161471b565b9250506020614b11858286016148ee565b9150509250929050565b600067ffffffffffffffff821115614b3657614b3561493a565b5b614b3f826145d9565b9050602081019050919050565b6000614b5f614b5a84614b1b565b61499a565b905082815260208101848484011115614b7b57614b7a614935565b5b614b868482856149e6565b509392505050565b600082601f830112614ba357614ba2614930565b5b8135614bb3848260208601614b4c565b91505092915050565b60008060008060808587031215614bd657614bd56144df565b5b6000614be48782880161471b565b9450506020614bf58782880161471b565b9350506040614c0687828801614666565b925050606085013567ffffffffffffffff811115614c2757614c266144e4565b5b614c3387828801614b8e565b91505092959194509250565b600080600060608486031215614c5857614c576144df565b5b6000614c668682870161471b565b9350506020614c7786828701614666565b9250506040614c8886828701614666565b9150509250925092565b60008060408385031215614ca957614ca86144df565b5b6000614cb78582860161471b565b9250506020614cc88582860161471b565b9150509250929050565b600080600060608486031215614ceb57614cea6144df565b5b6000614cf986828701614794565b9350506020614d0a86828701614794565b9250506040614d1b86828701614794565b9150509250925092565b600080600080600080600060e0888a031215614d4457614d436144df565b5b600088013567ffffffffffffffff811115614d6257614d616144e4565b5b614d6e8a828b01614a37565b975050602088013567ffffffffffffffff811115614d8f57614d8e6144e4565b5b614d9b8a828b01614a37565b9650506040614dac8a828b0161471b565b955050606088013567ffffffffffffffff811115614dcd57614dcc6144e4565b5b614dd98a828b01614a37565b9450506080614dea8a828b0161471b565b93505060a0614dfb8a828b0161471b565b92505060c0614e0c8a828b0161471b565b91505092959891949750929550565b7f4e487b7100000000000000000000000000000000000000000000000000000000600052602260045260246000fd5b60006002820490506001821680614e6257607f821691505b602082108103614e7557614e74614e1b565b5b50919050565b600081519050614e8a8161464f565b92915050565b600060208284031215614ea657614ea56144df565b5b6000614eb484828501614e7b565b91505092915050565b7f496e73756666696369656e742062616c616e6365000000000000000000000000600082015250565b6000614ef3601483614458565b9150614efe82614ebd565b602082019050919050565b60006020820190508181036000830152614f2281614ee6565b9050919050565b614f3281614770565b82525050565b614f41816147a9565b82525050565b600060e082019050614f5c600083018a6146da565b614f6960208301896146da565b614f76604083018861485a565b614f83606083018761485a565b614f906080830186614f29565b614f9d60a0830185614f38565b614faa60c0830184614f38565b98975050505050505050565b7f4e487b7100000000000000000000000000000000000000000000000000000000600052601160045260246000fd5b6000614ff082614645565b9150614ffb83614645565b925082820261500981614645565b915082820484148315176150205761501f614fb6565b5b5092915050565b7f4e487b7100000000000000000000000000000000000000000000000000000000600052601260045260246000fd5b600061506182614645565b915061506c83614645565b92508261507c5761507b615027565b5b828204905092915050565b600081519050615096816148d7565b92915050565b6000602082840312156150b2576150b16144df565b5b60006150c084828501615087565b91505092915050565b60006150d482614645565b91506150df83614645565b92508282039050818111156150f7576150f6614fb6565b5b92915050565b7f4e487b7100000000000000000000000000000000000000000000000000000000600052603260045260246000fd5b600061513782614645565b915061514283614645565b925082820190508082111561515a57615159614fb6565b5b92915050565b600081519050919050565b600082825260208201905092915050565b6000819050602082019050919050565b615195816146c8565b82525050565b60006151a7838361518c565b60208301905092915050565b6000602082019050919050565b60006151cb82615160565b6151d5818561516b565b93506151e08361517c565b8060005b838110156152115781516151f8888261519b565b9750615203836151b3565b9250506001810190506151e4565b5085935050505092915050565b600060a082019050615233600083018861485a565b615240602083018761485a565b818103604083015261525281866151c0565b905061526160608301856146da565b61526e608083018461485a565b9695505050505050565b600067ffffffffffffffff8211156152935761529261493a565b5b602082029050602081019050919050565b600080fd5b60006152bc6152b784615278565b61499a565b905080838252602082019050602084028301858111156152df576152de6152a4565b5b835b8181101561530857806152f48882614e7b565b8452602084019350506020810190506152e1565b5050509392505050565b600082601f83011261532757615326614930565b5b81516153378482602086016152a9565b91505092915050565b600060208284031215615356576153556144df565b5b600082015167ffffffffffffffff811115615374576153736144e4565b5b61538084828501615312565b91505092915050565b600060608201905061539e600083018661485a565b6153ab602083018561485a565b6153b8604083018461485a565b949350505050565b60006060820190506153d560008301866146da565b6153e2602083018561485a565b6153ef60408301846146da565b949350505050565b600060408201905061540c60008301856146da565b615419602083018461485a565b9392505050565b6000604082019050615435600083018561485a565b818103602083015261544781846151c0565b90509392505050565b600081905092915050565b6000615466826145a4565b6154708185615450565b93506154808185602086016145af565b80840191505092915050565b6000615498828461545b565b915081905092915050565b60008190508160005260206000209050919050565b600081546154c581614e4a565b6154cf8186615450565b945060018216600081146154ea57600181146154ff57615532565b60ff1983168652811515820286019350615532565b615508856154a3565b60005b8381101561552a5781548189015260018201915060208101905061550b565b838801955050505b50505092915050565b600061554782846154b8565b915081905092915050565b60006020601f8301049050919050565b600082821b905092915050565b60006008830261559f7fffffffffffffffffffffffffffffffffffffffffffffffffffffffffffffffff82615562565b6155a98683615562565b95508019841693508086168417925050509392505050565b6000819050919050565b60006155e66155e16155dc84614645565b6155c1565b614645565b9050919050565b6000819050919050565b615600836155cb565b61561461560c826155ed565b84845461556f565b825550505050565b600090565b61562961561c565b6156348184846155f7565b505050565b5b818110156156585761564d600082615621565b60018101905061563a565b5050565b601f82111561569d5761566e816154a3565b61567784615552565b81016020851015615686578190505b61569a61569285615552565b830182615639565b50505b505050565b600082821c905092915050565b60006156c0600019846008026156a2565b1980831691505092915050565b60006156d983836156af565b9150826002028217905092915050565b6156f2826145a4565b67ffffffffffffffff81111561570b5761570a61493a565b5b6157158254614e4a565b61572082828561565c565b600060209050601f8311600181146157535760008415615741578287015190505b61574b85826156cd565b8655506157b3565b601f198416615761866154a3565b60005b8281101561578957848901518255600182019150602085019450602081019050615764565b868310156157a657848901516157a2601f8916826156af565b8355505b6001600288020188555050505b505050505050565b7f43616e6e6f74206265207a65726f000000000000000000000000000000000000600082015250565b60006157f1600e83614458565b91506157fc826157bb565b602082019050919050565b60006020820190508181036000830152615820816157e4565b9050919050565b7f4164647265737320307830206973206e6f7420616c6c6f77656420666f72206f60008201527f70657261746f7200000000000000000000000000000000000000000000000000602082015250565b6000615883602783614458565b915061588e82615827565b604082019050919050565b600060208201905081810360008301526158b281615876565b9050919050565b60006158c5828561545b565b91506158d1828461545b565b91508190509392505050565b7f4e6f74206f70657261746f720000000000000000000000000000000000000000600082015250565b6000615913600c83614458565b915061591e826158dd565b602082019050919050565b6000602082019050818103600083015261594281615906565b9050919050565b7f546f6b656e20617574686f7269747920697320696e76616c6964000000000000600082015250565b600061597f601a83614458565b915061598a82615949565b602082019050919050565b600060208201905081810360008301526159ae81615972565b9050919050565b60006040820190506159ca600083018561485a565b6159d7602083018461485a565b9392505050565b6000819050919050565b600067ffffffffffffffff82169050919050565b6000615a17615a12615a0d846159de565b6155c1565b6159e8565b9050919050565b615a27816159fc565b82525050565b6000602082019050615a426000830184615a1e565b92915050565b6000606082019050615a5d60008301866146da565b615a6a60208301856146da565b615a77604083018461485a565b949350505050565b600081519050919050565b600081905092915050565b6000615aa082615a7f565b615aaa8185615a8a565b9350615aba8185602086016145af565b80840191505092915050565b6000615ad28284615a95565b915081905092915050565b7f5341000000000000000000000000000000000000000000000000000000000000600082015250565b6000615b13600283614458565b9150615b1e82615add565b602082019050919050565b60006020820190508181036000830152615b4281615b06565b9050919050565b600082825260208201905092915050565b6000615b6582615a7f565b615b6f8185615b49565b9350615b7f8185602086016145af565b615b88816145d9565b840191505092915050565b6000608082019050615ba860008301876146da565b615bb560208301866146da565b615bc2604083018561485a565b8181036060830152615bd48184615b5a565b905095945050505050565b600081519050615bee81614515565b92915050565b600060208284031215615c0a57615c096144df565b5b6000615c1884828501615bdf565b91505092915050565b7f4e487b7100000000000000000000000000000000000000000000000000000000600052603160045260246000fdfea26469706673582212209d075ad54f670a602a0870199b9dd9e5283e11f65fb28beec7ee853b6643ed6f64736f6c63430008140033",
  "linkReferences": {},
  "deployedLinkReferences": {}
}